:100000000C94AB000C94D3000C94D3000C94D3004C
:100010000C94D3000C94D3000C94D3000C94D30014
:100020000C94D3000C94D3000C9404050C94730529
:100030000C94D3000C94D3000C94D3000C94D300F4
:100040000C94D3000C94D3000C94D3000C94D300E4
:100050000C94D3000C94D3000C94D3000C94BA04E9
:100060000C94D3000C94D3000C94D3000C94D300C4
:100070000C94D3000C94D3000C94D3000C94D300B4
:100080000C94D3000C94D3000C94D3000C94D300A4
:100090000C94D3000C94D3000C94D3000C94D30094
:1000A0000C94D3000C94D3000C94D300080B0002E2
:1000B0000202000009040000010202000005240001
:1000C0001001052401010104240206052406000193
:1000D0000705810310004009040100020A00000026
:1000E00007050202400000070583024000000403E8
:1000F000090412010002EF02014041233780000190
:100100000102030141726475696E6F204C4C43001B
:1001100041726475696E6F204D6963726F000501ED
:100120000902A1010901A10085010509190129039D
:10013000150025019503750181029501750581035F
:1001400005010930093109381581257F75089503A6
:100150008106C0C0A50711241FBECFEFDAE0DEBFC5
:10016000CDBF11E0A0E0B1E0E2EDF2E102C0059008
:100170000D92A233B107D9F721E0A2E3B1E001C0AB
:100180001D92A23DB207E1F710E0CBEAD0E004C037
:100190002197FE010E946109CA3AD107C9F70E945E
:1001A0002F080C9467090C940000CF93DF93FC0197
:1001B00081819091AE01482F490F5527551F483036
:1001C00051059CF5A281B381109709F52AEA31E027
:1001D0003383228320812093AC018093AD018091F1
:1001E000AF01820F80832091B001A22FB091B101A5
:1001F0008A2F821B8917E8F481813D91C82FD0E0B6
:10020000C45FDE4F38838F5F8183F2CFD9011896A8
:100210002D913C91199721153105C1F72AEA31E05A
:1002200019963C932E931897D5CF80E0DF91CF910C
:10023000089581E0FBCFFC0180915901882311F1E1
:100240003FB7F89482E08093E9002091F200822F7A
:1002500090E01816190614F481E090E0882339F034
:10026000289A44E6409358014091F10040832223AC
:1002700039F02091F200211103C02BE62093E80011
:100280003FBF08958FEF9FEF08953FB7F894809197
:10029000540190915501A0915601B091570126B596
:1002A000A89B05C02F3F19F00196A11DB11D3FBFAE
:1002B000BA2FA92F982F8827BC01CD01620F711D7D
:1002C000811D911D42E0660F771F881F991F4A9577
:1002D000D1F70895CF92DF92EF92FF920E944501ED
:1002E0006B017C010E9445016C197D098E099F09F3
:1002F000683E734081059105A8F3FF90EF90DF9071
:10030000CF900895409140015091410120913E01CC
:1003100030913F0142175307B4F49091E800957073
:10032000E1F39091E80092FD19C08093F100809173
:1003300040019091410101968F739927892B19F4FF
:100340008EEF8093E80080914001909141010196E9
:10035000909341018093400181E0089580E00895E9
:10036000EF92FF920F931F93CF93DF93F82E192FE5
:10037000E62E042F81E0860F880F0E94820183E021
:100380000E948201CF2DD12FEC0EFD2EF11CCE1537
:10039000DF05B9F007FF13C0FE0184910E948201BE
:1003A000182F80E00E948201812321968111EFCFD6
:1003B000DF91CF911F910F91FF90EF900895888169
:1003C000EDCF81E0F5CFDF92EF92FF920F931F9375
:1003D000CF93DF93D82E8A01EB017B01E40EF51E4B
:1003E000CE15DF0559F0D7FE12C0FE0184910E94A0
:1003F000820121968111F4CF0FEF1FEFC801DF9129
:10040000CF911F910F91FF90EF90DF900895888119
:10041000EECF2FB7F89487708093E9009091E800B1
:10042000892F807295FF04C09091F20080E4891BAF
:100430002FBF08957F928F929F92AF92BF92CF92DB
:10044000DF92EF92FF920F931F93CF93DF93C82E0B
:100450008B017A0180915901811110C08FEF9FEFBC
:10046000DF91CF911F910F91FF90EF90DF90CF9090
:10047000BF90AF909F908F907F900895809144019E
:1004800080FF05C08091E00082608093E000CE2D67
:10049000DF2DD12C8AEFB82E8C2D8770982E8C2DC5
:1004A0008072882E8C2D8074782E9AE3A92E209746
:1004B00019F4DD2009F44EC08C2D0E94090281112F
:1004C00006C0BA94BB2051F20E946A01F0CF8C178B
:1004D0001D0611F00CF08C2F9FB7F8949092E90054
:1004E0002091E80025FD02C09FBFE1CF282F30E01A
:1004F000C21BD30B882029F08150A0F01092F1008C
:10050000FBCFF801C7FC0AC0815050F041914093E5
:10051000F100FACF44914093F10031968150D0F729
:10052000020F131FDD2021F0A092E800D12CDCCFB8
:100530008091E80085FD07C0A092E800DD24D394F7
:10054000209791F2F3CF209779F6772069F2A09265
:10055000E800CACF5D9A84E680934301C70180CF4B
:10056000615030F02091F100FC0120830196F8CF1A
:10057000289A84E68093580108958091360181116C
:100580000DC082E08093320184E0809333011092A9
:1005900035011092340181E08093360182E391E0CD
:1005A00008951F93CF93DF9300D000D01F92CDB753
:1005B000DEB79091D10199838A836B834C838091BC
:1005C000BB0181112AC011E01093AE011093AF015D
:1005D00084EB91E09093B1018093B0011092B3014C
:1005E0001092B20189E291E09093AB018093AA014D
:1005F0001092B6011092B5011092B8011092B70195
:100600001093B9011093BA0181EC8093B4010E9458
:10061000BD020E94D5001093BB0181E08D8341E0B3
:1006200050E0BE016B5F7F4F8091AD010E941A02C6
:1006300097FD0AC08091AD0144E050E0BE016F5FBC
:100640007F4F80640E941A020F900F900F900F90BE
:100650000F90DF91CF911F9108950F931F93CF9328
:10066000DF931F92CDB7DEB782E0898342E450E08A
:100670006CEA70E080E80E94E3010E94BD02DC01A8
:1006800012960D911C910115110589F0D801ED917B
:10069000FC910280F381E02DBE016F5F7F4FC801A6
:1006A000099597FD04C0F80100851185ECCF89817B
:1006B0000F90DF91CF911F910F910895CF93DF930A
:1006C000EC0180910B01882331F083E00E941A0233
:1006D0001816190634F081E090E09B838A8380E04D
:1006E00090E0DF91CF910895CF93DF931F92CDB724
:1006F000DEB76983DC01ED91FC910280F381E02D8E
:1007000041E050E0BE016F5F7F4F09950F90DF9190
:10071000CF91089583E08093E9008091F2008823CF
:1007200019F08AE38093E800089583E00E940902AB
:1007300090E00895CF93DF931F92CDB7DEB7FC0111
:100740008485958597FD08C02FEF3FEF3587248777
:100750000F90DF91CF910895CE0101960E941B0169
:10076000019719F4898190E0F3CF8FEF9FEFF0CFDD
:100770000F931F93CF93DF931F92CDB7DEB78C01FA
:10078000FC018485958597FF0BC0CE0101960E94E0
:100790001B01019771F4898190E0F80195878487A6
:1007A000F801848595850F90DF91CF911F910F916E
:1007B00008958FEF9FEFF1CFFC018485958597FD1C
:1007C0000BC09FB7F89482E08093E9008091F2001B
:1007D0009FBF90E0019608959FB7F89482E08093C0
:1007E000E9008091F2009FBF90E00895DC01FB01D9
:1007F00012962C911297848195812817190641F43D
:1008000091818081813A31F49D7F81E0913009F0BE
:1008100080E008958132E1F79B3029F482811F96B0
:100820008C9381E008959A3099F7828150968C9349
:10083000F8CFDC01FB0188E4808389E4818384E4D0
:1008400082831D969C911D979F709F5B93831D963D
:100850008D919C9124E0969587952A95E1F78F706C
:100860008F5B848385E00895EF92FF920F931F932F
:10087000CF93DF93FB012081213871F52381223250
:1008800059F5DC0112964C912481358142171306EB
:1008900019F5EC010B851C85F12CE12C01151105D6
:1008A00089F0F801448155816281738180E80E945A
:1008B000E3018F3F980749F0E80EF91ED8010D912A
:1008C0001C91ECCF81E08F87C701DF91CF911F9101
:1008D0000F91FF90EF90089590E080E0F6CFCF93D6
:1008E000DF93CDB7DEB769970FB6F894DEBF0FBEC2
:1008F000CDBFFC01DB018C918F5F8C939E012D5F3E
:100900003F4F8DE0D9011D928A95E9F729E02983AF
:1009100084E08A8391E09D8383E08E832A8721E2AD
:100920002B879C879D879F8722E2288B27E02B8B34
:1009300025E02C8B8E8B20E430E0388F2F8B998F25
:1009400082818B8395858685998B8A8B838180684C
:100950008D8B49E150E0BE016F5F7F4F80E00E94C8
:10096000E30169960FB6F894DEBF0FBECDBFDF91ED
:10097000CF9108951F920F920FB60F9211242F93CB
:100980003F938F939F93AF93BF938091500190912A
:100990005101A0915201B091530130914F0123E0D8
:1009A000230F2D3758F50196A11DB11D20934F013E
:1009B0008093500190935101A0935201B093530141
:1009C0008091540190915501A0915601B091570129
:1009D0000196A11DB11D8093540190935501A093E0
:1009E0005601B0935701BF91AF919F918F913F9165
:1009F0002F910F900FBE0F901F90189526E8230F90
:100A00000296A11DB11DD2CF1F920F920FB60F9269
:100A100011248F939F938091E1009091E100937F47
:100A20009093E10083FF0FC01092E90091E0909352
:100A3000EB001092EC0092E39093ED0010925901BC
:100A400098E09093F00082FF22C093E09093E90039
:100A50009091F200992319F09AE39093E800909115
:100A60004301992341F090914301915090934301A8
:100A7000911101C05D9890915801992341F0909196
:100A80005801915090935801911101C0289884FF0A
:100A900018C08091E2008E7E81608093E200809198
:100AA000E1008F7E8093E100809144018E7E806121
:100AB000809344019F918F910F900FBE0F901F90D4
:100AC000189580FFF7CF8091E2008E7E8061809341
:100AD000E2008091E1008E7E8093E10080914401EC
:100AE0008E7E8160E5CF1F920F920FB60F92112478
:100AF000CF92DF92EF92FF920F931F932F933F932A
:100B00004F935F936F937F938F939F93AF93BF9315
:100B1000EF93FF93CF93DF93CDB7DEB76C97DEBF34
:100B2000CDBF1092E9008091E80083FF25C068E006
:100B3000CE0145960E94B00282EF8093E8008D8935
:100B400087FF39C09091E80090FFFCCF982F9076F6
:100B500009F034C19E894F89588D2F89F88C9111E5
:100B600031C0803861F5809145018093F100109289
:100B7000F1008EEF8093E8006C960FB6F894DEBF1C
:100B80000FBECDBFDF91CF91FF91EF91BF91AF919C
:100B90009F918F917F916F915F914F913F912F9195
:100BA0001F910F91FF90EF90DF90CF900F900FBEAD
:100BB0000F901F9018959EEF9093E800C7CF10926A
:100BC000F100D5CF913059F48111D3CF4130510587
:100BD00081F6809145018D7F80934501CACF933086
:100BE00049F48111C6CF4130510519F68091450174
:100BF0008260F2CF953041F48091E80080FFFCCF15
:100C000020682093E300B5CF963009F0A9C00B8D82
:100C10001C8D22E01092E9001092410110924001D7
:100C2000F2122EC010923F0110923E010E942D033D
:100C30001F8299E09983FA8291E09E8390EA9887D7
:100C40009AEF99872091400130914101275F3F4FF2
:100C50003C832B838D831092E90010924101109206
:100C6000400110933F0100933E0149E050E0BE0176
:100C70006F5F7F4F80E00E94E3010E942D0379CFD8
:100C800010933F0100933E010E94BD02DC011296C9
:100C90000D911C910115110509F451C1D801ED9177
:100CA000FC910480F581E02DBE016B5E7F4FC80191
:100CB0000995009709F03EC1F80100851185EACF3A
:100CC000F3E0FF120EC08F89882309F440C0823000
:100CD00061F440E86DE080E191E00E94B001811193
:100CE00048CF81E28093EB0047CF813029F440E880
:100CF0006BE084E091E0F1CF833099F70E94BD0270
:100D0000DC011296ED90FC908E010F5F1F4F680181
:100D1000E114F10479F0D701ED91FC910680F7819F
:100D2000E02DB801C7010995080F111DF701E084F6
:100D3000F184EECFD8011C92F60101900020E9F772
:100D40003197BF016C197D0940E0C601C6CF6EEE38
:100D500070E0FB01449150E080E80E94E30109CF7C
:100D6000973009F4BECF983021F481E08093F100F0
:100D700000CF993009F0FDCE837009F0B2CFEDE0DD
:100D8000F1E081E031E096E32191222371F080933C
:100D9000E9003093EB00DF0111972C912093EC00D8
:100DA0009093ED008F5F873079F78EE78093EA00AC
:100DB0001092EA008F8980935901DBCE8B8D9C8D38
:100DC0001092E900109241011092400190933F016E
:100DD00080933E01898D811192C08E899D89913ABF
:100DE00049F4813209F07DCF47E050E064E071E0E2
:100DF00080E0B3CF913209F074CF833269F48F89E8
:100E0000988DB0E0A0E08093000190930101A09341
:100E10000201B0930301ADCE803269F48091E80005
:100E200082FFFCCF67E084E091E00E94B0028BEF8C
:100E30008093E8009ECE823209F09BCE8F8980930A
:100E40000B01EEEFFFE7859194918B3F9C4D51F1A3
:100E5000E0E0F8E08091040190910501A091060185
:100E6000B0910701803B9440A105B105F1F4809158
:100E70000B0180FD1AC0EE3F8AE0F80789F587E78D
:100E800097E791838083809160008093420188E19D
:100E90009BE00FB6F894A895809360000FBE9093E6
:100EA000600067CEEEEFFAE0D5CF80819181873781
:100EB000974709F05ECEA895809160008861809385
:100EC00060008091420180936000EE3F2AE0F207CB
:100ED00089F08091FE0A9091FF0A9183808349CE28
:100EE000808191818737980751F29093FF0A809310
:100EF000FE0AC5CF1092FF0A1092FE0A3ACE0E9457
:100F0000BD02DC0112960D911C910115110509F429
:100F1000E8CED801ED91FC910190F081E02DBE0169
:100F20006B5E7F4FC8010995811123CEF8010085C2
:100F30001185EBCF181619060CF41BCED2CEF1E0BA
:100F4000FF12BECE62EF70E004CFCF9310925D012E
:100F500010925C0188EE93E0A0E0B0E080935E0127
:100F600090935F01A0936001B093610187E191E0EC
:100F700090935B0180935A018FEF9FEF90936701ED
:100F8000809366011092D1018091C901811113C033
:100F90001092C4011092C3018EE191E09093C601BA
:100FA0008093C50186E390E09093C8018093C701C8
:100FB00081E08093C9018091BB0181112AC0C1E009
:100FC000C093AE01C093AF0184EB91E09093B10167
:100FD0008093B0011092B3011092B20189E291E0C6
:100FE0009093AB018093AA011092B6011092B501C3
:100FF0001092B8011092B701C093B901C093BA0121
:1010000081EC8093B4010E94BD020E94D500C09380
:10101000BB01E091B501F091B6013097B9F483ECD2
:1010200091E09093B6018093B5018091B7019091C2
:10103000B8012091C7013091C801820F931F90938E
:10104000B8018093B701CF910895FC01808191810F
:101050000097D9F783EC91E091838083E6CF789471
:1010600084B5826084BD84B5816084BD85B58260AD
:1010700085BD85B5816085BD80916E00816080935E
:101080006E001092810080918100826080938100C7
:1010900080918100816080938100809180008160D7
:1010A0008093800080919100826080939100809174
:1010B0009100816080939100809190008160809385
:1010C00090008091C10084608093C1008091C10034
:1010D00082608093C1008091C10081608093C100D3
:1010E0008091C30081608093C3008091C0008260C2
:1010F0008093C0008091C20081608093C200809183
:101100007A00846080937A0080917A008260809374
:101110007A0080917A00816080937A0080917A00D1
:10112000806880937A0010925901109245011092C4
:1011300044018091D70081608093D70080EA80933A
:10114000D80089B5806189BD89B5826089BD09B43F
:1011500000FEFDCF0E946A018091D8008F7C8061E3
:101160008093D8008091E000807F8093E0008091A0
:10117000E1008E7E8093E1008DE08093E200559A3D
:10118000209A5D9828988FEF9FEF90936701809346
:101190006601FF24F39400E010E08AE591E00E94EC
:1011A000DC03892B09F486C08AE591E00E949A034A
:1011B000E0914E01E11102C0853A79F791E09E0F6E
:1011C00090934E01F0E0EA5BFE4F8083983029F760
:1011D00090914D01E6E4F1E080E02191822721E049
:1011E000ED34F207D1F7981769F06AE58AE591E0E6
:1011F0000E94740361E08AE591E00E9474031092FA
:101200004E01CBCF80914701823021F120F4813013
:1012100081F0C0E03CC0833009F447C0C5E08430B1
:10122000C1F740E060E084E10E94D102C150C9F7FB
:101230000FC060914A0170914B017627672780911A
:101240004801909149019827892740E00E94D102E6
:10125000C1E01DC0D0914801D13029F0D23019F041
:10126000D330E9F4D4E09091D101809149018823F1
:10127000C1F08D2F892B981739F08093D10140E070
:1012800060E080E00E94D102C1E0DD2311F26AE556
:101290008AE591E00E9474036C2F6F25ACCFD0E0FB
:1012A000E2CF8D2F80958923E6CF4091480160E001
:1012B00080E0CCCF0115110509F46FCF0E9400002A
:1012C0006CCFEE0FFF1F0590F491E02D0994F89478
:0212D000FFCF4E
:1012D200FFFFFFFF00E100000000000000C180816D
:1012E2000000000000000074035E0395038A03DC23
:1012F200039A03B80300000000F6036F04340419D4
:021302000400E5
:00000001FF
