:100000000C94BA000C94E2000C94E2000C94E20010
:100010000C94E2000C94E2000C94E2000C94E200D8
:100020000C94E2000C94E2000C942F050C949E05B5
:100030000C94E2000C94E2000C94E2000C94E200B8
:100040000C94E2000C94E2000C94E2000C94E200A8
:100050000C94E2000C94E2000C94E2000C94E50491
:100060000C94E2000C94E2000C94E2000C94E20088
:100070000C94E2000C94E2000C94E2000C94E20078
:100080000C94E2000C94E2000C94E2000C94E20068
:100090000C94E2000C94E2000C94E2000C94E20058
:1000A0000C94E2000C94E2000C94E200080B0002B5
:1000B0000202000009040000010202000005240001
:1000C0001001052401010104240206052406000193
:1000D0000705810310004009040100020A00000026
:1000E00007050202400000070583024000000403E8
:1000F000090412010002EF02014041233780000190
:100100000102030141726475696E6F204C4C43001B
:1001100041726475696E6F204D6963726F000501ED
:100120000902A1010901A10085010509190129039D
:10013000150025019503750181029501750581035F
:1001400005010930093109381581257F75089503A6
:100150008106C0C005010902A10185040901A100B1
:100160000930093116000026FF7F751095028102C3
:10017000C0C0D00711241FBECFEFDAE0DEBFCDBF75
:1001800011E0A0E0B1E0E2EFF4E102C005900D92D1
:10019000A233B107D9F721E0A2E3B1E001C01D927B
:1001A000A83DB207E1F710E0CAEBD0E004C0219708
:1001B000FE010E94710AC93BD107C9F70E94560887
:1001C0000C94770A0C940000FC0180917201882342
:1001D00011F13FB7F89482E08093E9002091F2009A
:1001E000822F90E01816190614F481E090E088231D
:1001F00039F0289A44E6409371014091F100408320
:10020000222339F02091F200211103C02BE6209324
:10021000E8003FBF08958FEF9FEF08953FB7F89430
:1002200080916D0190916E01A0916F01B09170016C
:1002300026B5A89B05C02F3F19F00196A11DB11D41
:100240003FBFBA2FA92F982F8827BC01CD01620F7D
:10025000711D811D911D42E0660F771F881F991F38
:100260004A95D1F70895CF92DF92EF92FF920E94C4
:100270000E016B017C010E940E016C197D098E0933
:100280009F09683E734081059105A8F3FF90EF90A8
:10029000DF90CF9008954091590150915A012091DB
:1002A00057013091580142175307B4F49091E80078
:1002B0009570E1F39091E80092FD19C08093F100F0
:1002C0008091590190915A0101968F739927892B3A
:1002D00019F48EEF8093E8008091590190915A01B2
:1002E000019690935A018093590181E0089580E02E
:1002F0000895EF92FF920F931F93CF93DF93F82E01
:10030000192FE62E042F81E0860F880F0E944B01E3
:1003100083E00E944B01CF2DD12FEC0EFD2EF11C5E
:10032000CE15DF05B9F007FF13C0FE0184910E94CE
:100330004B01182F80E00E944B01812321968111EF
:10034000EFCFDF91CF911F910F91FF90EF90089524
:100350008881EDCF81E0F5CFDF92EF92FF920F938E
:100360001F93CF93DF93D82E8A01EB017B01E40E1C
:10037000F51ECE15DF0559F0D7FE12C0FE0184919F
:100380000E944B0121968111F4CF0FEF1FEFC8019E
:10039000DF91CF911F910F91FF90EF90DF90089523
:1003A0008881EECF2FB7F89487708093E900909101
:1003B000E800892F807295FF04C09091F20080E4DC
:1003C000891B2FBF08957F928F929F92AF92BF9209
:1003D000CF92DF92EF92FF920F931F93CF93DF9311
:1003E000C82E8B017A0180917201811110C08FEFAC
:1003F0009FEFDF91CF911F910F91FF90EF90DF90D2
:10040000CF90BF90AF909F908F907F9008958091F4
:100410005D0180FF05C08091E00082608093E00074
:10042000CE2DDF2DD12C8AEFB82E8C2D8770982EF3
:100430008C2D8072882E8C2D8074782E9AE3A92EB4
:10044000209719F4DD2009F44EC08C2D0E94D201B2
:10045000811106C0BA94BB2051F20E943301F0CF43
:100460008C171D0611F00CF08C2F9FB7F89490920A
:10047000E9002091E80025FD02C09FBFE1CF282FB1
:1004800030E0C21BD30B882029F08150A0F01092DD
:10049000F100FBCFF801C7FC0AC0815050F0419138
:1004A0004093F100FACF44914093F100319681508E
:1004B000D0F7020F131FDD2021F0A092E800D12C0D
:1004C000DCCF8091E80085FD07C0A092E800DD2424
:1004D000D394209791F2F3CF209779F6772069F2A1
:1004E000A092E800CACF5D9A84E680935C01C701C0
:1004F00080CFCF92DF92EF92FF920F931F93CF9313
:10050000DF931F92CDB7DEB77C0169836A0141E0BA
:1005100050E0BE016F5F7F4FFC0183810E94E301C9
:100520008C0197FD0CC0F701838144E050E0B601D7
:1005300080640E94E301080F191F97FD8C01C80118
:100540000F90DF91CF911F910F91FF90EF90DF906F
:10055000CF900895615030F02091F100FC0120838C
:100560000196F8CF289A84E68093710108958091CE
:100570004F0181110DC082E080934B0184E0809394
:100580004C0110924E0110924D0181E080934F0179
:100590008BE491E008950F931F93CF93DF931F9205
:1005A000CDB7DEB782E0898342E450E06CEA70E0C8
:1005B00080E80E94AC010E94B702DC0112960D9106
:1005C0001C910115110589F0D801ED91FC91028073
:1005D000F381E02DBE016F5F7F4FC801099597FD44
:1005E00004C0F80100851185ECCF89810F90DF915F
:1005F000CF911F910F910895CF93DF93EC018091DC
:100600001201882331F083E00E94E30118161906D5
:1006100034F081E090E09B838A8380E090E0DF917A
:10062000CF910895CF93DF931F92CDB7DEB7698343
:10063000DC01ED91FC910280F381E02D41E050E07E
:10064000BE016F5F7F4F09950F90DF91CF910895A5
:1006500083E08093E9008091F200882319F08AE317
:100660008093E800089583E00E94D20190E008950D
:10067000CF93DF931F92CDB7DEB7FC0184859585BC
:1006800097FD08C02FEF3FEF358724870F90DF914C
:10069000CF910895CE0101960E94E400019719F4CC
:1006A000898190E0F3CF8FEF9FEFF0CF0F931F93EF
:1006B000CF93DF931F92CDB7DEB78C01FC01848509
:1006C000958597FF0BC0CE0101960E94E40001972B
:1006D00071F4898190E0F80195878487F801848519
:1006E00095850F90DF91CF911F910F9108958FEF16
:1006F0009FEFF1CFFC018485958597FD0BC09FB7D7
:10070000F89482E08093E9008091F2009FBF90E02E
:10071000019608959FB7F89482E08093E900809154
:10072000F2009FBF90E00895DC01FB0112962C912E
:100730001297848195812817190641F4918180814F
:10074000813A31F49D7F81E0913009F080E0089595
:100750008132E1F79B3029F482811F968C9381E0EE
:1007600008959A3099F7828150968C93F8CFDC01E6
:10077000FB0188E4808389E4818384E482831D967D
:100780009C911D979F709F5B93831D968D919C916B
:1007900024E0969587952A95E1F78F708F5B848387
:1007A00085E00895EF92FF920F931F93CF93DF930D
:1007B000FB012081213871F52381223259F5DC01BA
:1007C00012964C91248135814217130619F5EC01DC
:1007D0000B851C85F12CE12C0115110589F0F80120
:1007E000448155816281738180E80E94AC018F3F12
:1007F000980749F0E80EF91ED8010D911C91ECCF35
:1008000081E08F87C701DF91CF911F910F91FF90FA
:10081000EF90089590E080E0F6CFCF93DF93CDB7CF
:10082000DEB769970FB6F894DEBF0FBECDBFFC01EF
:10083000DB018C918F5F8C939E012D5F3F4F8DE08C
:10084000D9011D928A95E9F729E0298384E08A83FA
:1008500091E09D8383E08E832A8721E22B879C870A
:100860009D879F8722E2288B27E02B8B25E02C8B0E
:100870008E8B20E430E0388F2F8B998F82818B8391
:1008800095858685998B8A8B838180688D8B49E1DC
:1008900050E0BE016F5F7F4F80E00E94AC0169961F
:1008A0000FB6F894DEBF0FBECDBFDF91CF91089594
:1008B000CF93DF9380914301811167C081E08093E2
:1008C0003601809337012CE331E0309339012093D6
:1008D000380110923B0110923A0127E131E0309348
:1008E00033012093320110923E0110923D0110928B
:1008F000400110923F01809341018093420181ECBD
:1009000080933C010E94B702FC01818190913601E5
:10091000482F490F5527551F483051059CF5A28196
:10092000B381109709F522E331E0338322832081DC
:10093000209334018093350180913701820F8083A9
:1009400020913801A22FB09139018A2F821B89177B
:10095000C8F481813D91C82FD0E0C050DF4F38836B
:100960008F5F8183F2CFD90118962D913C91199711
:1009700021153105C1F722E331E019963C932E93FE
:100980001897D5CF81E08093430182E391E0DF9116
:10099000CF910895CF93DF9300D000D0CDB7DEB7CD
:1009A0009091D10199838A836B834C830E94580470
:1009B000AE014F5F5F4F61E00E9479020F900F9090
:1009C0000F900F90DF91CF9108951F920F920FB665
:1009D0000F9211242F933F938F939F93AF93BF93C5
:1009E0008091690190916A01A0916B01B0916C01B5
:1009F0003091680123E0230F2D3758F50196A11D92
:100A0000B11D209368018093690190936A01A093BE
:100A10006B01B0936C0180916D0190916E01A0917A
:100A20006F01B09170010196A11DB11D80936D0100
:100A300090936E01A0936F01B0937001BF91AF913D
:100A40009F918F913F912F910F900FBE0F901F900C
:100A5000189526E8230F0296A11DB11DD2CF1F9233
:100A60000F920FB60F9211248F939F938091E10004
:100A70009091E100937F9093E10083FF0FC010926B
:100A8000E90091E09093EB001092EC0092E39093D8
:100A9000ED001092720198E09093F00082FF22C066
:100AA00093E09093E9009091F200992319F09AE372
:100AB0009093E80090915C01992341F090915C0142
:100AC000915090935C01911101C05D9890917101DA
:100AD000992341F09091710191509093710191117E
:100AE00001C0289884FF18C08091E2008E7E81604A
:100AF0008093E2008091E1008F7E8093E1008091FD
:100B00005D018E7E806180935D019F918F910F903A
:100B10000FBE0F901F90189580FFF7CF8091E200D5
:100B20008E7E80618093E2008091E1008E7E8093D2
:100B3000E10080915D018E7E8160E5CF1F920F9272
:100B40000FB60F921124CF92DF92EF92FF920F9384
:100B50001F932F933F934F935F936F937F938F9345
:100B60009F93AF93BF93EF93FF93CF93DF93CDB753
:100B7000DEB76C97DEBFCDBF1092E9008091E80030
:100B800083FF25C068E0CE0145960E94AA0282EF4D
:100B90008093E8008D8987FF39C09091E80090FF2D
:100BA000FCCF982F907609F034C19E894F89588DDB
:100BB0002F89F88C911131C0803861F580915E01E8
:100BC0008093F1001092F1008EEF8093E8006C9614
:100BD0000FB6F894DEBF0FBECDBFDF91CF91FF916E
:100BE000EF91BF91AF919F918F917F916F915F91A5
:100BF0004F913F912F911F910F91FF90EF90DF90B8
:100C0000CF900F900FBE0F901F9018959EEF90936E
:100C1000E800C7CF1092F100D5CF913059F481117F
:100C2000D3CF4130510581F680915E018D7F809355
:100C30005E01CACF933049F48111C6CF41305105CE
:100C400019F680915E018260F2CF953041F4809177
:100C5000E80080FFFCCF20682093E300B5CF9630FA
:100C600009F0A9C00B8D1C8D22E01092E9001092B2
:100C70005A0110925901F2122EC01092580110928E
:100C800057010E94CB021F8299E09983FA8291E07A
:100C90009E8390EA98879AEF998720915901309125
:100CA0005A01275F3F4F3C832B838D831092E900CD
:100CB00010925A0110925901109358010093570154
:100CC00049E050E0BE016F5F7F4F80E00E94AC01C1
:100CD0000E94CB0279CF10935801009357010E94D4
:100CE000B702DC0112960D911C910115110509F452
:100CF00051C1D801ED91FC910480F581E02DBE0138
:100D00006B5E7F4FC8010995009709F03EC1F8015D
:100D100000851185EACFF3E0FF120EC08F8988238A
:100D200009F440C0823061F440E86DE080E191E078
:100D30000E947901811148CF81E28093EB0047CF77
:100D4000813029F440E86BE084E091E0F1CF83301A
:100D500099F70E94B702DC011296ED90FC908E018B
:100D60000F5F1F4F6801E114F10479F0D701ED9195
:100D7000FC910680F781E02DB801C7010995080FA5
:100D8000111DF701E084F184EECFD8011C92F60129
:100D900001900020E9F73197BF016C197D0940E00F
:100DA000C601C6CF6EEE70E0FB01449150E080E8D2
:100DB0000E94AC0109CF973009F4BECF983021F4DE
:100DC00081E08093F10000CF993009F0FDCE83706F
:100DD00009F0B2CFE1E0F1E081E031E096E321916A
:100DE000222371F08093E9003093EB00DF0111972B
:100DF0002C912093EC009093ED008F5F873079F772
:100E00008EE78093EA001092EA008F898093720146
:100E1000DBCE8B8D9C8D1092E90010925A011092BE
:100E200059019093580180935701898D811192C087
:100E30008E899D89913A49F4813209F07DCF47E04E
:100E400050E06BE071E080E0B3CF913209F074CFF5
:100E5000833269F48F89988DB0E0A0E08093070118
:100E600090930801A0930901B0930A01ADCE80329E
:100E700069F48091E80082FFFCCF67E08BE091E0AD
:100E80000E94AA028BEF8093E8009ECE823209F086
:100E90009BCE8F8980931201EEEFFFE785919491AD
:100EA0008B3F9C4D51F1E0E0F8E080910B01909177
:100EB0000C01A0910D01B0910E01803B9440A10561
:100EC000B105F1F48091120180FD1AC0EE3F8AE075
:100ED000F80789F587E797E7918380838091600021
:100EE00080935B0188E19BE00FB6F894A89580930E
:100EF00060000FBE9093600067CEEEEFFAE0D5CFB2
:100F0000808191818737974709F05ECEA8958091BF
:100F1000600088618093600080915B018093600035
:100F2000EE3F2AE0F20789F08091FE0A9091FF0AD5
:100F30009183808349CE808191818737980751F2D0
:100F40009093FF0A8093FE0AC5CF1092FF0A109279
:100F5000FE0A3ACE0E94B702DC0112960D911C9156
:100F60000115110509F4E8CED801ED91FC9101902D
:100F7000F081E02DBE016B5E7F4FC80109958111A4
:100F800023CEF80100851185EBCF181619060CF455
:100F90001BCED2CEF1E0FF12BECE62EF70E004CFE6
:100FA000109276011092750188EE93E0A0E0B0E017
:100FB0008093770190937801A0937901B0937A019F
:100FC00083E291E090937401809373018FEF9FEF20
:100FD0009093800180937F011092D1018091C9018B
:100FE000811113C01092C4011092C3018EE191E0EF
:100FF0009093C6018093C50186E390E09093C80169
:101000008093C70181E08093C9010E945804FC01CC
:10101000A385B4851097A9F583EC91E09487838725
:10102000858596852091C7013091C801820F931F55
:10103000968785871092D3011092D20184E591E0C2
:101040009093D5018093D4018EE190E09093D701E5
:101050008093D6010E945804FC01A385B4851097A3
:10106000D9F482ED91E094878387858596852091D8
:10107000D6013091D701820F931F968785870895F7
:10108000DC018D919C9111970097D1F783EC91E051
:101090008D939C93C5CFDC018D919C911197009706
:1010A000D1F782ED91E08D939C93DFCFCF93DF93C7
:1010B000CDB7DEB760970FB6F894DEBF0FBECDBFD9
:1010C000789484B5826084BD84B5816084BD85B523
:1010D000826085BD85B5816085BD80916E0081602F
:1010E00080936E00109281008091810082608093D5
:1010F00081008091810081608093810080918000D7
:101100008160809380008091910082608093910043
:101110008091910081608093910080919000816026
:10112000809390008091C10084608093C100809181
:10113000C10082608093C1008091C1008160809372
:10114000C1008091C30081608093C3008091C00082
:1011500082608093C0008091C20081608093C20051
:1011600080917A00846080937A0080917A00826016
:1011700080937A0080917A00816080937A008091D8
:101180007A00806880937A001092720110925E015A
:1011900010925D018091D70081608093D70080EA32
:1011A0008093D80089B5806189BD89B5826089BD89
:1011B00009B400FEFDCF0E9433018091D8008F7CDE
:1011C00080618093D8008091E000807F8093E00070
:1011D0008091E1008E7E8093E1008DE08093E200BB
:1011E000559A209A5D9828988FEF9FEF90938001F1
:1011F00080937F0183E791E00E947A03892B09F4B1
:1012000027C183E791E00E943803E0916701E11173
:1012100002C0853A79F791E09E0F90936701F0E064
:10122000E15AFE4F8083983029F790916601EFE5EF
:10123000F1E080E02191822721E0E636F207D1F744
:10124000981769F06AE583E791E00E94120361E074
:1012500083E791E00E94120310926701CBCF809147
:101260006001833009F4E8C038F4813029F182301C
:1012700009F4B6C010E0D2C0843009F4E5C085306E
:10128000C9F7809161019091620198278927982779
:101290009A838983809163019091640198278927BB
:1012A00098279C838B830E945804AE014F5F5F4F49
:1012B00064E00E947902C6C04091610150916201D0
:1012C0005427452754278091630190916401982702
:1012D00089279827092E000CAA0BBB0B89879A87B0
:1012E000AB87BC87B7FF07C0B095A0959095819557
:1012F0009F4FAF4FBF4F052E000C660B770B4D87EE
:101300005E876F87788B77FF07C0709560955095E3
:1013100041955F4F6F4F7F4F84179507A607B7071B
:1013200014F4DB01CA01BC01CD0162587F4F8F4F1D
:101330009F4F2FE730E040E050E00E94300A290143
:101340003A0189859A85AB85BC858D839E83AF8361
:10135000B887CD84DE84EF84F888812C912C5401E9
:101360008394312C10E0481459046A047B040CF473
:1013700069C0C701B601A30192010E94300A022F81
:101380006D817E818F819885A30192010E94300A30
:10139000222E622F631940E0802F811B0E94CA0415
:1013A0009FEF891A990AA90AB90A2D853E854F85AA
:1013B0005889C20ED31EE41EF51E8D819E81AF8119
:1013C000B88529853A854B855C85820F931FA41FBC
:1013D000B51F8D839E83AF83B887322C102FC3CF68
:1013E00000916101013029F0023019F00330F1F46D
:1013F00004E09091D101809162018823C9F0802F8F
:10140000892B891739F08093D10140E060E080E0BA
:101410000E94CA0411E0002309F42CCF6AE583E797
:1014200091E00E94120361E0612712CF00E0E1CF5A
:10143000802F80958923E5CF4091610160E080E0B5
:101440000E94CA0411E0EACF40E060E084E6F8CFF1
:1014500040E050E0452B09F4CDCE0E940000CACEFA
:10146000052E97FB1EF400940E94470A57FD07D0F3
:101470000E944F0A07FC03D04EF40C94470A509583
:101480004095309521953F4F4F4F5F4F0895909570
:101490008095709561957F4F8F4F9F4F0895A1E282
:1014A0001A2EAA1BBB1BFD010DC0AA1FBB1FEE1FDE
:1014B000FF1FA217B307E407F50720F0A21BB30B29
:1014C000E40BF50B661F771F881F991F1A9469F7A5
:1014D00060957095809590959B01AC01BD01CF0101
:1014E0000895EE0FFF1F0590F491E02D0994F894F4
:0214F000FFCF2C
:1014F20000C18081000000FFFFFFFF00E10000004B
:101502000000000000000094030D04D203B70300A2
:101512000000001203FC02330328037A0338035647
:021522000300C4
:00000001FF
