:100000000C94AD000C94D5000C94D5000C94D50044
:100010000C94D5000C94D5000C94D5000C94D5000C
:100020000C94D5000C94D5000C945D050C94CC0573
:100030000C94D5000C94D5000C94D5000C94D500EC
:100040000C94D5000C94D5000C94D5000C94D500DC
:100050000C94D5000C94D5000C94D5000C94130589
:100060000C94D5000C94D5000C94D5000C94D500BC
:100070000C94D5000C94D5000C94D5000C94D500AC
:100080000C94D5000C94D5000C94D5000C94D5009C
:100090000C94D5000C94D5000C94D5000C94D5008C
:1000A0000C94D5000C94D5000C94D500080B0002DC
:1000B0000202000009040000010202000005240001
:1000C0001001052401010104240206052406000193
:1000D0000705810310004009040100020A00000026
:1000E00007050202400000070583024000000403E8
:1000F000090412010002EF02014041233680000191
:100100000102030141726475696E6F204C4C43001B
:1001100041726475696E6F204C656F6E6172646FB9
:100120000005010902A1010901A1008501050919C4
:1001300001290315002501950375018102950175BB
:1001400005810305010930093109381581257F75BD
:100150000895038106C0C000FE0711241FBECFEF23
:10016000DAE0DEBFCDBF11E0A0E0B1E0E2E1F3E113
:1001700002C005900D92A433B107D9F721E0A4E3A2
:10018000B1E001C01D92A23DB207E1F710E0CDEA57
:10019000D0E004C02197FE010E948109CC3AD1072A
:1001A000C9F70E9454080C9487090C940000FC01C4
:1001B00080917201882311F13FB7F89482E0809317
:1001C000E9002091F200822F90E01816190614F42D
:1001D00081E090E0882339F0289844E6409371014B
:1001E0004091F1004083222339F02091F200211147
:1001F00003C02BE62093E8003FBF08958FEF9FEFE9
:1002000008953FB7F89480916D0190916E01A0918F
:100210006F01B091700126B5A89B05C02F3F19F062
:100220000196A11DB11D3FBFBA2FA92F982F882776
:10023000BC01CD01620F711D811D911D42E0660F51
:10024000771F881F991F4A95D1F708958F929F9223
:10025000AF92BF92CF92DF92EF92FF924B015C017F
:100260000E9401016B017C010E9401016C197D0952
:100270008E099F09683E734081059105A8F321E02E
:10028000821A9108A108B10888EEC80E83E0D81E32
:10029000E11CF11C81149104A104B10429F7FF9021
:1002A000EF90DF90CF90BF90AF909F908F90089588
:1002B00040915B0150915C012091590130915A01AC
:1002C00042175307B4F49091E8009570E1F39091D0
:1002D000E80092FD19C08093F10080915B0190913C
:1002E0005C0101968F739927892B19F48EEF809307
:1002F000E80080915B0190915C01019690935C0114
:1003000080935B0181E0089580E00895EF92FF9271
:100310000F931F93CF93DF93F82E192FE62E042F00
:1003200081E0860F880F0E94580183E00E945801E7
:10033000CF2DD12FEC0EFD2EF11CCE15DF05B9F01F
:1003400007FF13C0FE0184910E945801182F80E01E
:100350000E945801812321968111EFCFDF91CF9127
:100360001F910F91FF90EF9008958881EDCF81E06C
:10037000F5CFDF92EF92FF920F931F93CF93DF930E
:10038000D82E8A01EB017B01E40EF51ECE15DF05A8
:1003900059F0D7FE12C0FE0184910E9458012196A7
:1003A0008111F4CF0FEF1FEFC801DF91CF911F91A3
:1003B0000F91FF90EF90DF9008958881EECF2FB7D7
:1003C000F89487708093E9009091E800892F8072FB
:1003D00095FF04C09091F20080E4891B2FBF08951F
:1003E0007F928F929F92AF92BF92CF92DF92EF92C5
:1003F000FF920F931F93CF93DF93C82E8B017A0147
:1004000080917201811110C08FEF9FEFDF91CF912A
:100410001F910F91FF90EF90DF90CF90BF90AF9022
:100420009F908F907F90089580915F0180FF05C01D
:100430008091E00082608093E000CE2DDF2DD12CF2
:100440008AEFB82E8C2D8770982E8C2D8072882E76
:100450008C2D8074782E9AE3A92E209719F4DD2034
:1004600009F452C08C2D0E94DF0181110AC0BA9498
:10047000BB2051F261E070E080E090E00E94260134
:10048000ECCF8C171D0611F00CF08C2F9FB7F89451
:100490009092E9002091E80025FD02C09FBFDDCFCA
:1004A000282F30E0C21BD30B882029F08150A0F008
:1004B0001092F100FBCFF801C7FC0AC0815050F048
:1004C00041914093F100FACF44914093F10031966D
:1004D0008150D0F7020F131FDD2021F0A092E80019
:1004E000D12CDCCF8091E80085FD07C0A092E80008
:1004F000DD24D394209791F2F3CF209779F67720DB
:1005000069F2A092E800CACF5D9884E680935E010C
:10051000C7017CCFCF92DF92EF92FF920F931F9390
:10052000CF93DF931F92CDB7DEB77C016B0181E0E3
:10053000898341E050E0BE016F5F7F4FF701838107
:100540000E94F0018C0197FD0CC0F701838144E00B
:1005500050E0B60180640E94F001080F191F97FD5A
:100560008C01C8010F90DF91CF911F910F91FF90E7
:10057000EF90DF90CF900895615030F02091F1001E
:10058000FC0120830196F8CF289884E680937101BE
:1005900008958091510181110DC082E080934D0139
:1005A00084E080934E011092500110924F0181E03F
:1005B000809351018DE491E008950F931F93CF93A1
:1005C000DF931F92CDB7DEB782E0898342E450E02B
:1005D0006CEA70E080E80E94B9010E94C902DC0167
:1005E00012960D911C910115110589F0D801ED911C
:1005F000FC910280F381E02DBE016F5F7F4FC80147
:10060000099597FD04C0F80100851185ECCF89811B
:100610000F90DF91CF911F910F910895CF93DF93AA
:10062000EC0180911201882331F083E00E94F001F7
:100630001816190634F081E090E09B838A8380E0ED
:1006400090E0DF91CF910895CF93DF931F92CDB7C4
:10065000DEB76983DC01ED91FC910280F381E02D2E
:1006600041E050E0BE016F5F7F4F09950F90DF9131
:10067000CF91089583E08093E9008091F200882370
:1006800019F08AE38093E800089583E00E94DF0177
:1006900090E00895CF93DF931F92CDB7DEB7FC01B2
:1006A0008485958597FD08C02FEF3FEF3587248718
:1006B0000F90DF91CF910895CE0101960E94D7004F
:1006C000019719F4898190E0F3CF8FEF9FEFF0CF7E
:1006D0000F931F93CF93DF931F92CDB7DEB78C019B
:1006E000FC018485958597FF0BC0CE0101960E9481
:1006F000D700019771F4898190E0F801958784878C
:10070000F801848595850F90DF91CF911F910F910E
:1007100008958FEF9FEFF1CFFC018485958597FDBC
:100720000BC09FB7F89482E08093E9008091F200BB
:100730009FBF90E0019608959FB7F89482E0809360
:10074000E9008091F2009FBF90E00895DC01FB0179
:1007500012962C911297848195812817190641F4DD
:1007600091818081813A31F49D7F81E0913009F05F
:1007700080E008958132E1F79B3029F482811F9651
:100780008C9381E008959A3099F7828150968C93EA
:10079000F8CFDC01FB0188E4808389E4818384E471
:1007A00082831D969C911D979F709F5B93831D96DE
:1007B0008D919C9124E0969587952A95E1F78F700D
:1007C0008F5B848385E00895EF92FF920F931F93D0
:1007D000CF93DF93FB012081213871F523812232F1
:1007E00059F5DC0112964C9124813581421713068C
:1007F00019F5EC010B851C85F12CE12C0115110577
:1008000089F0F801448155816281738180E80E94FA
:10081000B9018F3F980749F0E80EF91ED8010D91F4
:100820001C91ECCF81E08F87C701DF91CF911F91A1
:100830000F91FF90EF90089590E080E0F6CFCF9376
:10084000DF93CDB7DEB769970FB6F894DEBF0FBE62
:10085000CDBFFC01DB018C918F5F8C939E012D5FDE
:100860003F4F8DE0D9011D928A95E9F729E0298350
:1008700084E08A8391E09D8383E08E832A8721E24E
:100880002B879C879D879F8722E2288B27E02B8BD5
:1008900025E02C8B8E8B20E430E0388F2F8B998FC6
:1008A00082818B8395858685998B8A8B83818068ED
:1008B0008D8B49E150E0BE016F5F7F4F80E00E9469
:1008C000B90169960FB6F894DEBF0FBECDBFDF91B8
:1008D000CF910895CF93DF9380914501811167C037
:1008E00081E080933801809339012EE331E0309329
:1008F0003B0120933A0110923D0110923C0127E107
:1009000031E0309335012093340110924001109270
:100910003F01109242011092410180934301809364
:10092000440181EC80933E010E94C902FC01818157
:1009300090913801482F490F5527551F48305105D0
:100940009CF5A281B381109709F524E331E033834C
:1009500022832081209336018093370180913901D1
:10096000820F808320913A01A22FB0913B018A2F00
:10097000821B8917C8F481813D91C82FD0E0C050F7
:10098000DF4F38838F5F8183F2CFD90118962D9185
:100990003C91199721153105C1F724E331E01996EF
:1009A0003C932E931897D5CF81E08093450184E343
:1009B00091E0DF91CF910895CF93DF9300D000D0E5
:1009C000CDB7DEB789836A834B831C820E946A0499
:1009D000BE016F5F7F4F0E948A0221E0059709F0F8
:1009E00020E0822F0F900F900F900F90DF91CF910A
:1009F0000895CF93DF9300D000D0CDB7DEB79091AC
:100A0000D10199831A821B828C830E946A04BE01E1
:100A10006F5F7F4F0E948A020F900F900F900F9090
:100A2000DF91CF9108951F920F920FB60F9211246C
:100A30002F933F938F939F93AF93BF9380916901BF
:100A400090916A01A0916B01B0916C0130916801A5
:100A500023E0230F2D3758F50196A11DB11D2093DA
:100A600068018093690190936A01A0936B01B09330
:100A70006C0180916D0190916E01A0916F01B09118
:100A800070010196A11DB11D80936D0190936E01BF
:100A9000A0936F01B0937001BF91AF919F918F911F
:100AA0003F912F910F900FBE0F901F90189526E841
:100AB000230F0296A11DB11DD2CF1F920F920FB628
:100AC0000F9211248F939F938091E1009091E10008
:100AD000937F9093E10083FF0FC01092E90091E0B3
:100AE0009093EB001092EC0092E39093ED00109243
:100AF000720198E09093F00082FF22C093E09093FF
:100B0000E9009091F200992319F09AE39093E8009C
:100B100090915E01992341F090915E0191509093E4
:100B20005E01911101C05D9A90917101992341F08C
:100B300090917101915090937101911101C0289A87
:100B400084FF18C08091E2008E7E81608093E20075
:100B50008091E1008F7E8093E10080915F018E7E25
:100B6000806180935F019F918F910F900FBE0F90D6
:100B70001F90189580FFF7CF8091E2008E7E8061F4
:100B80008093E2008091E1008E7E8093E10080916D
:100B90005F018E7E8160E5CF1F920F920FB60F929C
:100BA0001124CF92DF92EF92FF920F931F932F9316
:100BB0003F934F935F936F937F938F939F93AF93E5
:100BC000BF93EF93FF93CF93DF93CDB7DEB76C97CF
:100BD000DEBFCDBF1092E9008091E80083FF25C001
:100BE00068E0CE0145960E94BC0282EF8093E80047
:100BF0008D8987FF39C09091E80090FFFCCF982F36
:100C0000907609F034C19E894F89588D2F89F88CD0
:100C1000911131C0803861F5809160018093F100BD
:100C20001092F1008EEF8093E8006C960FB6F89466
:100C3000DEBF0FBECDBFDF91CF91FF91EF91BF918E
:100C4000AF919F918F917F916F915F914F913F9164
:100C50002F911F910F91FF90EF90DF90CF900F9009
:100C60000FBE0F901F9018959EEF9093E800C7CF8E
:100C70001092F100D5CF913059F48111D3CF41308A
:100C8000510581F6809160018D7F80936001CACF0C
:100C9000933049F48111C6CF4130510519F6809146
:100CA00060018260F2CF953041F48091E80080FFCE
:100CB000FCCF20682093E300B5CF963009F0A9C09F
:100CC0000B8D1C8D22E01092E90010925C011092B5
:100CD0005B01F2122EC010925A01109259010E942B
:100CE000DD021F8299E09983FA8291E09E8390EA67
:100CF00098879AEF998720915B0130915C01275F7B
:100D00003F4F3C832B838D831092E90010925C014E
:100D100010925B0110935A010093590149E050E091
:100D2000BE016F5F7F4F80E00E94B9010E94DD022B
:100D300079CF10935A01009359010E94C902DC0136
:100D400012960D911C910115110509F451C1D8019C
:100D5000ED91FC910480F581E02DBE016B5E7F4F2B
:100D6000C8010995009709F03EC1F8010085118579
:100D7000EACFF3E0FF120EC08F89882309F440C048
:100D8000823061F440E860E180E191E00E948601F8
:100D9000811148CF81E28093EB0047CF813029F465
:100DA00040E86BE084E091E0F1CF833099F70E9456
:100DB000C902DC011296ED90FC908E010F5F1F4F6F
:100DC0006801E114F10479F0D701ED91FC910680FE
:100DD000F781E02DB801C7010995080F111DF70132
:100DE000E084F184EECFD8011C92F601019000203E
:100DF000E9F73197BF016C197D0940E0C601C6CF04
:100E00006EEE70E0FB01449150E080E80E94B90171
:100E100009CF973009F4BECF983021F481E0809358
:100E2000F10000CF993009F0FDCE837009F0B2CF08
:100E3000E1E0F1E081E031E096E32191222371F0DD
:100E40008093E9003093EB00DF0111972C91209300
:100E5000EC009093ED008F5F873079F78EE78093F9
:100E6000EA001092EA008F8980937201DBCE8B8DAD
:100E70009C8D1092E90010925C0110925B0190939E
:100E80005A0180935901898D811192C08E899D8963
:100E9000913A49F4813209F07DCF47E050E06BE0B0
:100EA00071E080E0B3CF913209F074CF833269F4FE
:100EB0008F89988DB0E0A0E080930701909308019E
:100EC000A0930901B0930A01ADCE803269F48091FC
:100ED000E80082FFFCCF67E08BE091E00E94BC025B
:100EE0008BEF8093E8009ECE823209F09BCE8F89F3
:100EF00080931201EEEFFFE7859194918B3F9C4D1B
:100F000051F1E0E0F8E080910B0190910C01A0918B
:100F10000D01B0910E01803B9440A105B105F1F4A3
:100F20008091120180FD1AC0EE3F8AE0F80789F532
:100F300087E797E7918380838091600080935D01CC
:100F400088E19BE00FB6F894A895809360000FBEEF
:100F50009093600067CEEEEFFAE0D5CF808191816B
:100F60008737974709F05ECEA89580916000886129
:100F70008093600080915D0180936000EE3F2AE0E5
:100F8000F20789F08091FE0A9091FF0A9183808395
:100F900049CE808191818737980751F29093FF0A5B
:100FA0008093FE0AC5CF1092FF0A1092FE0A3ACE35
:100FB0000E94C902DC0112960D911C9101151105C8
:100FC00009F4E8CED801ED91FC910190F081E02D7B
:100FD000BE016B5E7F4FC8010995811123CEF801D8
:100FE00000851185EBCF181619060CF41BCED2CE56
:100FF000F1E0FF12BECE62EF70E004CF10927601F6
:101000001092750188EE93E0A0E0B0E08093770144
:1010100090937801A0937901B0937A0186E291E0F0
:1010200090937401809373018FEF9FEF90938001F1
:1010300080937F011092D1018091C901811113C069
:101040001092C4011092C30181E291E09093C60115
:101050008093C50186E390E09093C8018093C70117
:1010600081E08093C9010E946A04FC01A385B485D4
:10107000109781F483EC91E094878387858596852A
:101080002091C7013091C801820F931F96878587F1
:101090000895DC018D919C9111970097D1F783EC15
:1010A00091E08D939C93EACF789484B5826084BD5F
:1010B00084B5816084BD85B5826085BD85B581605C
:1010C00085BD80916E00816080936E0010928100DA
:1010D0008091810082608093810080918100816095
:1010E0008093810080918000816080938000809156
:1010F0009100826080939100809191008160809343
:101100009100809190008160809390008091C10057
:1011100084608093C1008091C10082608093C1008F
:101120008091C10081608093C1008091C300816083
:101130008093C3008091C00082608093C000809142
:10114000C20081608093C20080917A0084608093A5
:101150007A0080917A00826080937A0080917A0090
:10116000816080937A0080917A00806880937A0011
:10117000109272011092600110925F018091D7006D
:1011800081608093D70080EA8093D80089B5806120
:1011900089BD89B5826089BD09B400FEFDCF61E0DB
:1011A00070E080E090E00E9426018091D8008F7C62
:1011B00080618093D8008091E000807F8093E00080
:1011C0008091E1008E7E8093E1008DE08093E200CB
:1011D000559A209A8FEF9FEF9093800180937F0123
:1011E000C0E0D0E083E791E00E948C03892B09F4F2
:1011F00082C083E791E00E944A03E0916701E11118
:1012000002C08A3A79F791E09E0F90936701F0E06F
:10121000EF59FE4F8083963029F780916201833029
:1012200009F464C040F4813089F1823009F43EC091
:1012300010926701D7CF8E3709F45BC005E011E04B
:101240008F37B1F740E064E180E00E94DC041823AE
:1012500064E170E080E090E00E942601015091F787
:1012600040E060E081E00E94DC04082F40E060E0A4
:1012700080E00E94DC04102319F06CEA811101C0A7
:1012800061EE83E791E00E942403D2CF4091650193
:101290005091660154274527609163017091640164
:1012A0007627672780E00E94DC04C2CFE0916301CB
:1012B000E150E33008F0BCCFF0E0E15EFE4F80810A
:1012C000882309F4B5CF9091D101209164012223A4
:1012D00051F0892B891709F4ABCF8093D10180E0BD
:1012E0000E94F904A5CF80958923F4CF80916301F2
:1012F000F7CF65EAC6CF209709F474CF0E940000AB
:1013000071CFEE0FFF1F0590F491E02D0994F89432
:02131000FFCF0D
:1013120000C18081000000FFFFFFFF00E10000002C
:1013220000000000000000A6031F04E403C903013B
:1013320002040000000024030E0345033A038C0359
:041342004A036803EF
:00000001FF
