:100000000C94AD000C94D5000C94D5000C94D50044
:100010000C94D5000C94D5000C94D5000C94D5000C
:100020000C94D5000C94D5000C9412050C94810509
:100030000C94D5000C94D5000C94D5000C94D500EC
:100040000C94D5000C94D5000C94D5000C94D500DC
:100050000C94D5000C94D5000C94D5000C94C804D5
:100060000C94D5000C94D5000C94D5000C94D500BC
:100070000C94D5000C94D5000C94D5000C94D500AC
:100080000C94D5000C94D5000C94D5000C94D5009C
:100090000C94D5000C94D5000C94D5000C94D5008C
:1000A0000C94D5000C94D5000C94D500080B0002DC
:1000B0000202000009040000010202000005240001
:1000C0001001052401010104240206052406000193
:1000D0000705810310004009040100020A00000026
:1000E00007050202400000070583024000000403E8
:1000F000090412010002EF02014041233680000191
:100100000102030141726475696E6F204C4C43001B
:1001100041726475696E6F204C656F6E6172646FB9
:100120000005010902A1010901A1008501050919C4
:1001300001290515002501950575018102950175B7
:1001400003810305010930093109381581257F75BF
:100150000895038106C0C000B30711241FBECFEF6E
:10016000DAE0DEBFCDBF11E0A0E0B1E0E4EDF2E106
:1001700002C005900D92A233B107D9F721E0A2E3A6
:10018000B1E001C01D92AA3CB207E1F710E0CDEA50
:10019000D0E004C02197FE010E946209CC3AD10749
:1001A000C9F70E9434080C9468090C940000CF939E
:1001B000DF93FC0181819091AF01482F490F5527B2
:1001C000551F483051059CF5A281B381109709F560
:1001D0002BEA31E03383228320812093AD01809389
:1001E000AE018091B001820F80832091B101A22FD6
:1001F000B091B2018A2F821B8917E8F481813D9169
:10020000C82FD0E0C45FDE4F38838F5F8183F2CF89
:10021000D90118962D913C91199721153105C1F7F7
:100220002BEA31E019963C932E931897D5CF80E0B6
:10023000DF91CF91089581E0FBCFFC0180915A01BD
:10024000882311F13FB7F89482E08093E900209170
:10025000F200822F90E01816190614F481E090E065
:10026000882339F0289844E6409359014091F100E1
:100270004083222339F02091F200211103C02BE6A4
:100280002093E8003FBF08958FEF9FEF08953FB799
:10029000F8948091550190915601A0915701B09129
:1002A000580126B5A89B05C02F3F19F00196A11D46
:1002B000B11D3FBFBA2FA92F982F8827BC01CD01B0
:1002C000620F711D811D911D42E0660F771F881F0F
:1002D000991F4A95D1F70895CF92DF92EF92FF923E
:1002E0000E9447016B017C010E9447016C197D0946
:1002F0008E099F09683E734081059105A8F3FF9020
:10030000EF90DF90CF9008954091400150914101CE
:1003100020913E0130913F0142175307B4F4909170
:10032000E8009570E1F39091E80092FD19C0809388
:10033000F100809140019091410101968F739927BE
:10034000892B19F48EEF8093E80080914001909101
:1003500041010196909341018093400181E008950D
:1003600080E00895EF92FF920F931F93CF93DF9356
:10037000F82E192FE62E042F81E0860F880F0E9499
:10038000840183E00E948401CF2DD12FEC0EFD2E3D
:10039000F11CCE15DF05B9F007FF13C0FE018491F3
:1003A0000E948401182F80E00E94840181232196FD
:1003B0008111EFCFDF91CF911F910F91FF90EF90BF
:1003C00008958881EDCF81E0F5CFDF92EF92FF9223
:1003D0000F931F93CF93DF93D82E8A01EB017B01FC
:1003E000E40EF51ECE15DF0559F0D7FE12C0FE0152
:1003F00084910E94840121968111F4CF0FEF1FEFA9
:10040000C801DF91CF911F910F91FF90EF90DF9086
:1004100008958881EECF2FB7F89487708093E90014
:100420009091E800892F807295FF04C09091F200AE
:1004300080E4891B2FBF08957F928F929F92AF9285
:10044000BF92CF92DF92EF92FF920F931F93CF93C1
:10045000DF93C82E8B017A0180915A01811110C05F
:100460008FEF9FEFDF91CF911F910F91FF90EF9052
:10047000DF90CF90BF90AF909F908F907F90089526
:100480008091440180FF05C08091E00082608093EC
:10049000E000CE2DDF2DD12C8AEFB82E8C2D877069
:1004A000982E8C2D8072882E8C2D8074782E9AE355
:1004B000A92E209719F4DD2009F44EC08C2D0E943E
:1004C0000B02811106C0BA94BB2051F20E946C014C
:1004D000F0CF8C171D0611F00CF08C2F9FB7F894FD
:1004E0009092E9002091E80025FD02C09FBFE1CF76
:1004F000282F30E0C21BD30B882029F08150A0F0B8
:100500001092F100FBCFF801C7FC0AC0815050F0F7
:1005100041914093F100FACF44914093F10031961C
:100520008150D0F7020F131FDD2021F0A092E800C8
:10053000D12CDCCF8091E80085FD07C0A092E800B7
:10054000DD24D394209791F2F3CF209779F677208A
:1005500069F2A092E800CACF5D9884E680934301D7
:10056000C70180CF615030F02091F100FC01208361
:100570000196F8CF289884E68093590108958091D8
:10058000360181110DC082E08093320184E08093B6
:100590003301109235011092340181E080933601CD
:1005A00082E391E008950F931F93CF93DF931F92FF
:1005B000CDB7DEB782E0898342E450E06CEA70E0B8
:1005C00080E80E94E5010E94BF02DC0112960D91B5
:1005D0001C910115110589F0D801ED91FC91028063
:1005E000F381E02DBE016F5F7F4FC801099597FD34
:1005F00004C0F80100851185ECCF89810F90DF914F
:10060000CF911F910F910895CF93DF93EC018091CB
:100610000B01882331F083E00E941C021816190692
:1006200034F081E090E09B838A8380E090E0DF916A
:10063000CF910895CF93DF931F92CDB7DEB7698333
:10064000DC01ED91FC910280F381E02D41E050E06E
:10065000BE016F5F7F4F09950F90DF91CF91089595
:1006600083E08093E9008091F200882319F08AE307
:100670008093E800089583E00E940B0290E00895C3
:10068000CF93DF931F92CDB7DEB7FC0184859585AC
:1006900097FD08C02FEF3FEF358724870F90DF913C
:1006A000CF910895CE0101960E941D01019719F482
:1006B000898190E0F3CF8FEF9FEFF0CF0F931F93DF
:1006C000CF93DF931F92CDB7DEB78C01FC018485F9
:1006D000958597FF0BC0CE0101960E941D010197E1
:1006E00071F4898190E0F80195878487F801848509
:1006F00095850F90DF91CF911F910F9108958FEF06
:100700009FEFF1CFFC018485958597FD0BC09FB7C6
:10071000F89482E08093E9008091F2009FBF90E01E
:10072000019608959FB7F89482E08093E900809144
:10073000F2009FBF90E00895DC01FB0112962C911E
:100740001297848195812817190641F4918180813F
:10075000813A31F49D7F81E0913009F080E0089585
:100760008132E1F79B3029F482811F968C9381E0DE
:1007700008959A3099F7828150968C93F8CFDC01D6
:10078000FB0188E4808389E4818384E482831D966D
:100790009C911D979F709F5B93831D968D919C915B
:1007A00024E0969587952A95E1F78F708F5B848377
:1007B00085E00895EF92FF920F931F93CF93DF93FD
:1007C000FB012081213871F52381223259F5DC01AA
:1007D00012964C91248135814217130619F5EC01CC
:1007E0000B851C85F12CE12C0115110589F0F80110
:1007F000448155816281738180E80E94E5018F3FC9
:10080000980749F0E80EF91ED8010D911C91ECCF24
:1008100081E08F87C701DF91CF911F910F91FF90EA
:10082000EF90089590E080E0F6CFCF93DF93CDB7BF
:10083000DEB769970FB6F894DEBF0FBECDBFFC01DF
:10084000DB018C918F5F8C939E012D5F3F4F8DE07C
:10085000D9011D928A95E9F729E0298384E08A83EA
:1008600091E09D8383E08E832A8721E22B879C87FA
:100870009D879F8722E2288B27E02B8B25E02C8BFE
:100880008E8B20E430E0388F2F8B998F82818B8381
:1008900095858685998B8A8B838180688D8B49E1CC
:1008A00050E0BE016F5F7F4F80E00E94E5016996D6
:1008B0000FB6F894DEBF0FBECDBFDF91CF91089584
:1008C0000F931F93CF93DF9300D000D01F92CDB72B
:1008D000DEB79091460199838A836B834C83809124
:1008E000BC0181112AC011E01093AF011093B00137
:1008F00085EB91E09093B2018093B1011092B40125
:100900001092B30189E291E09093AC018093AB0126
:100910001092B7011092B6011092B9011092B8016D
:100920001093BA011093BB0181EC8093B5010E9432
:10093000BF020E94D7001093BC0181E08D8341E08B
:1009400050E0BE016B5F7F4F8091AE010E941C02A0
:100950008C0197FD0EC08091AE0144E050E0BE01D5
:100960006F5F7F4F80640E941C02080F191F97FD64
:100970008C0181E00530110509F080E00F900F90A7
:100980000F900F900F90DF91CF911F910F910895CD
:100990001F920F920FB60F9211242F933F938F93B4
:1009A0009F93AF93BF938091510190915201A09179
:1009B0005301B09154013091500123E0230F2D37A2
:1009C00058F50196A11DB11D20935001809351014E
:1009D00090935201A0935301B0935401809155011B
:1009E00090915601A0915701B09158010196A11D17
:1009F000B11D8093550190935601A0935701B09378
:100A00005801BF91AF919F918F913F912F910F907E
:100A10000FBE0F901F90189526E8230F0296A11D78
:100A2000B11DD2CF1F920F920FB60F9211248F9348
:100A30009F938091E1009091E100937F9093E1007A
:100A400083FF0FC01092E90091E09093EB001092A9
:100A5000EC0092E39093ED0010925A0198E090938D
:100A6000F00082FF22C093E09093E9009091F200A1
:100A7000992319F09AE39093E80090914301992308
:100A800041F090914301915090934301911101C025
:100A90005D9A90915901992341F09091590191509B
:100AA00090935901911101C0289A84FF18C0809138
:100AB000E2008E7E81608093E2008091E1008F7E73
:100AC0008093E100809144018E7E80618093440197
:100AD0009F918F910F900FBE0F901F90189580FFE0
:100AE000F7CF8091E2008E7E80618093E20080915A
:100AF000E1008E7E8093E100809144018E7E8160D2
:100B0000E5CF1F920F920FB60F921124CF92DF9272
:100B1000EF92FF920F931F932F933F934F935F9307
:100B20006F937F938F939F93AF93BF93EF93FF93B5
:100B3000CF93DF93CDB7DEB76C97DEBFCDBF1092FA
:100B4000E9008091E80083FF25C068E0CE0145966A
:100B50000E94B20282EF8093E8008D8987FF39C03E
:100B60009091E80090FFFCCF982F907609F034C167
:100B70009E894F89588D2F89F88C911131C080380A
:100B800061F5809145018093F1001092F1008EEFA4
:100B90008093E8006C960FB6F894DEBF0FBECDBF11
:100BA000DF91CF91FF91EF91BF91AF919F918F9185
:100BB0007F916F915F914F913F912F911F910F9175
:100BC000FF90EF90DF90CF900F900FBE0F901F908F
:100BD00018959EEF9093E800C7CF1092F100D5CF03
:100BE000913059F48111D3CF4130510581F6809174
:100BF00045018D7F80934501CACF933049F481111F
:100C0000C6CF4130510519F6809145018260F2CF7F
:100C1000953041F48091E80080FFFCCF206820935C
:100C2000E300B5CF963009F0A9C00B8D1C8D22E0F2
:100C30001092E9001092410110924001F2122EC070
:100C400010923F0110923E010E94D3021F8299E050
:100C50009983FA8291E09E8390EA98879AEF998728
:100C60002091400130914101275F3F4F3C832B830E
:100C70008D831092E900109241011092400110936F
:100C80003F0100933E0149E050E0BE016F5F7F4F9E
:100C900080E00E94E5010E94D30279CF10933F01CA
:100CA00000933E010E94BF02DC0112960D911C913F
:100CB0000115110509F451C1D801ED91FC91048091
:100CC000F581E02DBE016B5E7F4FC801099500974D
:100CD00009F03EC1F80100851185EACFF3E0FF126B
:100CE0000EC08F89882309F440C0823061F440E847
:100CF00060E180E191E00E94B201811148CF81E280
:100D00008093EB0047CF813029F440E86BE084E02A
:100D100091E0F1CF833099F70E94BF02DC01129677
:100D2000ED90FC908E010F5F1F4F6801E114F104FC
:100D300079F0D701ED91FC910680F781E02DB801A3
:100D4000C7010995080F111DF701E084F184EECF6A
:100D5000D8011C92F60101900020E9F73197BF01FC
:100D60006C197D0940E0C601C6CF6EEE70E0FB0154
:100D7000449150E080E80E94E50109CF973009F4E2
:100D8000BECF983021F481E08093F10000CF9930FC
:100D900009F0FDCE837009F0B2CFEDE0F1E081E023
:100DA00031E096E32191222371F08093E9003093A2
:100DB000EB00DF0111972C912093EC009093ED0054
:100DC0008F5F873079F78EE78093EA001092EA0010
:100DD0008F8980935A01DBCE8B8D9C8D1092E90018
:100DE000109241011092400190933F0180933E0187
:100DF000898D811192C08E899D89913A49F4813201
:100E000009F07DCF47E050E064E071E080E0B3CFCF
:100E1000913209F074CF833269F48F89988DB0E0F4
:100E2000A0E08093000190930101A0930201B09390
:100E30000301ADCE803269F48091E80082FFFCCFDF
:100E400067E084E091E00E94B2028BEF8093E800BB
:100E50009ECE823209F09BCE8F8980930B01EEEFFC
:100E6000FFE7859194918B3F9C4D51F1E0E0F8E0D4
:100E70008091040190910501A0910601B0910701B4
:100E8000803B9440A105B105F1F480910B0180FDF8
:100E90001AC0EE3F8AE0F80789F587E797E7918364
:100EA0008083809160008093420188E19BE00FB6CF
:100EB000F894A895809360000FBE9093600067CE71
:100EC000EEEFFAE0D5CF808191818737974709F01F
:100ED0005ECEA895809160008861809360008091CB
:100EE000420180936000EE3F2AE0F20789F0809192
:100EF000FE0A9091FF0A9183808349CE808191817F
:100F00008737980751F29093FF0A8093FE0AC5CF66
:100F10001092FF0A1092FE0A3ACE0E94BF02DC0134
:100F200012960D911C910115110509F4E8CED80116
:100F3000ED91FC910190F081E02DBE016B5E7F4F41
:100F4000C8010995811123CEF80100851185EBCFE9
:100F5000181619060CF41BCED2CEF1E0FF12BECE4D
:100F600062EF70E004CFCF9310925E0110925D01AA
:100F700088EE93E0A0E0B0E080935F019093600181
:100F8000A0936101B093620187E191E090935C01CD
:100F900080935B018FEF9FEF9093680180936701CF
:100FA0001092C5011092C40181E291E09093C701B3
:100FB0008093C60186E390E09093C9018093C801B5
:100FC0008091BC0181112AC0C1E0C093AF01C093E0
:100FD000B00185EB91E09093B2018093B101109242
:100FE000B4011092B30189E291E09093AC01809337
:100FF000AB011092B7011092B6011092B901109294
:10100000B801C093BA01C093BB0181EC8093B501D4
:101010000E94BF020E94D700C093BC01E091B601BC
:10102000F091B7013097B9F484EC91E09093B70157
:101030008093B6018091B8019091B9012091C801C7
:101040003091C901820F931F9093B9018093B80129
:10105000CF910895FC01808191810097D9F784ECAC
:1010600091E091838083E6CF789484B5826084BDDB
:1010700084B5816084BD85B5826085BD85B581609C
:1010800085BD80916E00816080936E00109281001A
:1010900080918100826080938100809181008160D5
:1010A0008093810080918000816080938000809196
:1010B0009100826080939100809191008160809383
:1010C0009100809190008160809390008091C10098
:1010D00084608093C1008091C10082608093C100D0
:1010E0008091C10081608093C1008091C3008160C4
:1010F0008093C3008091C00082608093C000809183
:10110000C20081608093C20080917A0084608093E5
:101110007A0080917A00826080937A0080917A00D0
:10112000816080937A0080917A00806880937A0051
:1011300010925A0110924501109244018091D700FB
:1011400081608093D70080EA8093D80089B5806160
:1011500089BD89B5826089BD09B400FEFDCF0E94BA
:101160006C018091D8008F7C80618093D800809141
:10117000E000807F8093E0008091E1008E7E80938C
:10118000E1008DE08093E200559A209A8FEF9FEF67
:101190009093680180936701FF24F39400E010E0CE
:1011A0008BE591E00E948203892B09F484C08BE5D2
:1011B00091E00E944003E0914F01E11102C0853AA5
:1011C00079F791E09E0F90934F01F0E0E95BFE4FBD
:1011D0008083983029F790914E01E7E4F1E080E0B8
:1011E0002191822721E0EE34F207D1F7981769F0B8
:1011F0006AE58BE591E00E941A0361E08BE591E0DE
:101200000E941A0310924F01CBCF80914801823087
:1012100081F138F4C1E0882321F1813091F0C0E000
:1012200020C0833009F444C0D5E0C1E08430B9F770
:1012300040E060E084E10E946004C823D150C1F71F
:1012400010C060914B0170914C0176276727809107
:10125000490190914A019827892740E00E94600443
:10126000C82F6AE58BE591E00E941A036C2F6F2569
:10127000C5CF80914901813029F0823019F0833047
:1012800089F484E09091460120914A01222361F083
:10129000982B9093460140E0882309F4C0CF60E08A
:1012A00080E0DCCF80E0EECF282F20959223F1CF95
:1012B00040914901F4CF0115110509F471CF0E9445
:1012C00000006ECFEE0FFF1F0590F491E02D099402
:0412D000F894FFCFC0
:1012D400FFFFFFFF00E100000000000000C180816B
:1012E400000000000000001A0304033B03300382E3
:1012F4000340035E03000000009C031504DA03BFEF
:021304000300E4
:00000001FF
