:100000000C94C6000C94EE000C94EE000C94EE00E0
:100010000C94EE000C94EE000C94EE000C94EE00A8
:100020000C94EE000C94EE000C9469050C94D80529
:100030000C94EE000C94EE000C94EE000C94EE0088
:100040000C94EE000C94EE000C94EE000C94EE0078
:100050000C94EE000C94EE000C94EE000C941F0532
:100060000C94EE000C94EE000C94EE000C94EE0058
:100070000C94EE000C94EE000C94EE000C94EE0048
:100080000C94EE000C94EE000C94EE000C94EE0038
:100090000C94EE000C94EE000C94EE000C94EE0028
:1000A0000C94EE000C94EE000C94EE00080B000291
:1000B0000202000009040000010202000005240001
:1000C0001001052401010104240206052406000193
:1000D0000705810310004009040100020A00000026
:1000E00007050202400000070583024000000403E8
:1000F000090412010002EF02014041233780000190
:100100000102030141726475696E6F204C4C43001B
:1001100041726475696E6F204D6963726F000501ED
:100120000902A1010901A10085010509190129039D
:10013000150025019503750181029501750581035F
:1001400005010930093109381581257F75089503A6
:100150008106C0C005010902A10185040901A100B1
:10016000050919012903150025019503750181026F
:100170009501750581030501093009311600002636
:10018000FF7F751095028102C0C00A0811241FBEAE
:10019000CFEFDAE0DEBFCDBF11E0A0E0B1E0EEEBE3
:1001A000F5E102C005900D92A233B107D9F721E025
:1001B000A2E3B1E001C01D92AE3DB207E1F710E04D
:1001C000C6ECD0E004C02197FE010E94D70AC53CCE
:1001D000D107C9F70E9490080C94DD0A0C94000026
:1001E000FC0180917801882311F13FB7F89482E0F7
:1001F0008093E9002091F200822F90E018161906F2
:1002000014F481E090E0882339F0289A44E6409382
:1002100077014091F1004083222339F02091F200D0
:10022000211103C02BE62093E8003FBF08958FEF14
:100230009FEF08953FB7F8948091730190917401F6
:10024000A0917501B091760126B5A89B05C02F3FFE
:1002500019F00196A11DB11D3FBFBA2FA92F982FEC
:100260008827BC01CD01620F711D811D911D42E0E7
:10027000660F771F881F991F4A95D1F70895CF926F
:10028000DF92EF92FF920E941A016B017C010E94A3
:100290001A016C197D098E099F09683E734081051A
:1002A0009105A8F3FF90EF90DF90CF9008954091D3
:1002B000590150915A01209157013091580142172C
:1002C0005307B4F49091E8009570E1F39091E80041
:1002D00092FD19C08093F1008091590190915A01CB
:1002E00001968F739927892B19F48EEF8093E8007C
:1002F0008091590190915A01019690935A018093EF
:10030000590181E0089580E00895EF92FF920F93E4
:100310001F93CF93DF93F82E192FE62E042F81E041
:10032000860F880F0E94570183E00E945701CF2D4E
:10033000D12FEC0EFD2EF11CCE15DF05B9F007FF15
:1003400013C0FE0184910E945701182F80E00E9483
:100350005701812321968111EFCFDF91CF911F911A
:100360000F91FF90EF9008958881EDCF81E0F5CF58
:10037000DF92EF92FF920F931F93CF93DF93D82ECC
:100380008A01EB017B01E40EF51ECE15DF0559F065
:10039000D7FE12C0FE0184910E945701219681115F
:1003A000F4CF0FEF1FEFC801DF91CF911F910F9195
:1003B000FF90EF90DF9008958881EECF2FB7F894EB
:1003C00087708093E9009091E800892F807295FFF3
:1003D00004C09091F20080E4891B2FBF08957F92A2
:1003E0008F929F92AF92BF92CF92DF92EF92FF9245
:1003F0000F931F93CF93DF93C82E8B017A018091C7
:100400007801811110C08FEF9FEFDF91CF911F9185
:100410000F91FF90EF90DF90CF90BF90AF909F90A3
:100420008F907F90089580915D0180FF05C080913D
:10043000E00082608093E000CE2DDF2DD12C8AEF8A
:10044000B82E8C2D8770982E8C2D8072882E8C2D36
:100450008074782E9AE3A92E209719F4DD2009F4F0
:100460004EC08C2D0E94DE01811106C0BA94BB20C3
:1004700051F20E943F01F0CF8C171D0611F00CF0D5
:100480008C2F9FB7F8949092E9002091E80025FD09
:1004900002C09FBFE1CF282F30E0C21BD30B8820C2
:1004A00029F08150A0F01092F100FBCFF801C7FCB9
:1004B0000AC0815050F041914093F100FACF44912D
:1004C0004093F10031968150D0F7020F131FDD20C9
:1004D00021F0A092E800D12CDCCF8091E80085FDCE
:1004E00007C0A092E800DD24D394209791F2F3CFC7
:1004F000209779F6772069F2A092E800CACF5D9A3A
:1005000084E680935C01C70180CF615030F0209178
:10051000F100FC0120830196F8CF289A84E68093AD
:100520007701089580914F0181110DC082E0809381
:100530004B0184E080934C0110924E0110924D01CA
:1005400081E080934F018BE491E008950F931F9316
:10055000CF93DF931F92CDB7DEB782E0898342E469
:1005600050E06CEA70E080E80E94B8010E949202BC
:10057000DC0112960D911C910115110589F0D8012D
:10058000ED91FC910280F381E02DBE016F5F7F4F02
:10059000C801099597FD04C0F80100851185ECCFCD
:1005A00089810F90DF91CF911F910F910895CF9383
:1005B000DF93EC0180911201882331F083E00E94E7
:1005C000EF011816190634F081E090E09B838A83CE
:1005D00080E090E0DF91CF910895CF93DF931F9259
:1005E000CDB7DEB76983DC01ED91FC910280F38128
:1005F000E02D41E050E0BE016F5F7F4F09950F9005
:10060000DF91CF91089583E08093E9008091F2001B
:10061000882319F08AE38093E800089583E00E941C
:10062000DE0190E00895CF93DF931F92CDB7DEB740
:10063000FC018485958597FD08C02FEF3FEF358736
:1006400024870F90DF91CF910895CE0101960E94EB
:10065000F000019719F4898190E0F3CF8FEF9FEFBD
:10066000F0CF0F931F93CF93DF931F92CDB7DEB7D9
:100670008C01FC018485958597FF0BC0CE01019606
:100680000E94F000019771F4898190E0F80195874C
:100690008487F801848595850F90DF91CF911F9114
:1006A0000F9108958FEF9FEFF1CFFC018485958521
:1006B00097FD0BC09FB7F89482E08093E90080918A
:1006C000F2009FBF90E0019608959FB7F89482E0F2
:1006D0008093E9008091F2009FBF90E00895DC01D3
:1006E000FB0112962C911297848195812817190687
:1006F00041F491818081813A31F49D7F81E0913094
:1007000009F080E008958132E1F79B3029F482817D
:100710001F968C9381E008959A3099F782815096C4
:100720008C93F8CFAF92BF92CF92DF92EF92FF926D
:100730000F931F93CF93DF931F92CDB7DEB77C014A
:1007400069836A01590141E050E0BE016F5F7F4F4C
:10075000FC0183810E94EF018C0197FD0BC0F70122
:100760008381A501B60180640E94EF01080F191F63
:1007700097FD8C01C8010F90DF91CF911F910F91D0
:10078000FF90EF90DF90CF90BF90AF900895DC0185
:10079000FB0188E4808389E4818384E482831D965D
:1007A0009C911D979F709F5B93831D968D919C914B
:1007B00024E0969587952A95E1F78F708F5B848367
:1007C00085E00895EF92FF920F931F93CF93DF93ED
:1007D000FB012081213871F52381223259F5DC019A
:1007E00012964C91248135814217130619F5EC01BC
:1007F0000B851C85F12CE12C0115110589F0F80100
:10080000448155816281738180E80E94B8018F3FE5
:10081000980749F0E80EF91ED8010D911C91ECCF14
:1008200081E08F87C701DF91CF911F910F91FF90DA
:10083000EF90089590E080E0F6CFCF93DF93CDB7AF
:10084000DEB769970FB6F894DEBF0FBECDBFFC01CF
:10085000DB018C918F5F8C939E012D5F3F4F8DE06C
:10086000D9011D928A95E9F729E0298384E08A83DA
:1008700091E09D8383E08E832A8721E22B879C87EA
:100880009D879F8722E2288B27E02B8B25E02C8BEE
:100890008E8B20E430E0388F2F8B998F82818B8371
:1008A00095858685998B8A8B838180688D8B49E1BC
:1008B00050E0BE016F5F7F4F80E00E94B8016996F3
:1008C0000FB6F894DEBF0FBECDBFDF91CF91089574
:1008D000CF93DF9380914301811167C081E08093C2
:1008E0003601809337012CE331E0309339012093B6
:1008F000380110923B0110923A0127E131E0309328
:1009000033012093320110923E0110923D0110926A
:10091000400110923F01809341018093420181EC9C
:1009200080933C010E949202FC01818190913601EA
:10093000482F490F5527551F483051059CF5A28176
:10094000B381109709F522E331E0338322832081BC
:10095000209334018093350180913701820F808389
:1009600020913801A22FB09139018A2F821B89175B
:10097000C8F481813D91C82FD0E0C050DF4F38834B
:100980008F5F8183F2CFD90118962D913C911997F1
:1009900021153105C1F722E331E019963C932E93DE
:1009A0001897D5CF81E08093430182E391E0DF91F6
:1009B000CF910895CF93DF9300D000D0CDB7DEB7AD
:1009C0009091D70199838A836B834C830E9468043A
:1009D00024E030E0AE014F5F5F4F61E00E94920380
:1009E0000F900F900F900F90DF91CF910895CF93BC
:1009F000DF9300D000D01F92CDB7DEB780916301A6
:100A0000898390916101809162019A838B83909197
:100A10005F01809160019C838D830E94680425E0C2
:100A200030E0AE014F5F5F4F64E00E9492030F9091
:100A30000F900F900F900F90DF91CF9108951F921C
:100A40000F920FB60F9211242F933F938F939F9382
:100A5000AF93BF9380916F0190917001A09171014C
:100A6000B091720130916E0123E0230F2D3758F5BC
:100A70000196A11DB11D20936E0180936F0190938B
:100A80007001A0937101B0937201809173019091F4
:100A90007401A0917501B09176010196A11DB11D5F
:100AA0008093730190937401A0937501B0937601C4
:100AB000BF91AF919F918F913F912F910F900FBE5A
:100AC0000F901F90189526E8230F0296A11DB11DC7
:100AD000D2CF1F920F920FB60F9211248F939F9334
:100AE0008091E1009091E100937F9093E10083FF7A
:100AF0000FC01092E90091E09093EB001092EC008F
:100B000092E39093ED001092780198E09093F000BA
:100B100082FF22C093E09093E9009091F200992324
:100B200019F09AE39093E80090915C01992341F0C9
:100B300090915C01915090935C01911101C05D987E
:100B400090917701992341F0909177019150909382
:100B50007701911101C0289884FF18C08091E200AC
:100B60008E7E81608093E2008091E1008F7E809391
:100B7000E10080915D018E7E806180935D019F9197
:100B80008F910F900FBE0F901F90189580FFF7CF99
:100B90008091E2008E7E80618093E2008091E1008E
:100BA0008E7E8093E10080915D018E7E8160E5CF35
:100BB0001F920F920FB60F921124CF92DF92EF92F5
:100BC000FF920F931F932F933F934F935F936F93D6
:100BD0007F938F939F93AF93BF93EF93FF93CF93A5
:100BE000DF93CDB7DEB76C97DEBFCDBF1092E900C3
:100BF0008091E80083FF25C068E0CE0145960E9401
:100C0000850282EF8093E8008D8987FF39C090913B
:100C1000E80090FFFCCF982F907609F034C19E89B0
:100C20004F89588D2F89F88C911131C0803861F52A
:100C300080915E018093F1001092F1008EEF80931D
:100C4000E8006C960FB6F894DEBF0FBECDBFDF9103
:100C5000CF91FF91EF91BF91AF919F918F917F9134
:100C60006F915F914F913F912F911F910F91FF9045
:100C7000EF90DF90CF900F900FBE0F901F901895C0
:100C80009EEF9093E800C7CF1092F100D5CF91303E
:100C900059F48111D3CF4130510581F680915E0125
:100CA0008D7F80935E01CACF933049F48111C6CF06
:100CB0004130510519F680915E018260F2CF953086
:100CC00041F48091E80080FFFCCF20682093E3008E
:100CD000B5CF963009F0A9C00B8D1C8D22E0109283
:100CE000E90010925A0110925901F2122EC010928E
:100CF0005801109257010E94A6021F8299E0998321
:100D0000FA8291E09E8390EA98879AEF99872091E2
:100D1000590130915A01275F3F4F3C832B838D83CC
:100D20001092E90010925A01109259011093580143
:100D30000093570149E050E0BE016F5F7F4F80E0B4
:100D40000E94B8010E94A60279CF10935801009327
:100D500057010E949202DC0112960D911C9101151F
:100D6000110509F451C1D801ED91FC910480F58180
:100D7000E02DBE016B5E7F4FC8010995009709F019
:100D80003EC1F80100851185EACFF3E0FF120EC0E5
:100D90008F89882309F440C0823061F440E86DE017
:100DA00080E191E00E948501811148CF81E280932A
:100DB000EB0047CF813029F440E86BE084E091E01C
:100DC000F1CF833099F70E949202DC011296ED90E8
:100DD000FC908E010F5F1F4F6801E114F10479F060
:100DE000D701ED91FC910680F781E02DB801C70194
:100DF0000995080F111DF701E084F184EECFD801A9
:100E00001C92F60101900020E9F73197BF016C199F
:100E10007D0940E0C601C6CF6EEE70E0FB01449153
:100E200050E080E80E94B80109CF973009F4BECFA6
:100E3000983021F481E08093F10000CF993009F0DF
:100E4000FDCE837009F0B2CFE1E0F1E081E031E066
:100E500096E32191222371F08093E9003093EB0017
:100E6000DF0111972C912093EC009093ED008F5FA0
:100E7000873079F78EE78093EA001092EA008F8935
:100E800080937801DBCE8B8D9C8D1092E9001092BF
:100E90005A01109259019093580180935701898DFE
:100EA000811192C08E899D89913A49F4813209F06D
:100EB0007DCF47E050E06BE071E080E0B3CF91324E
:100EC00009F074CF833269F48F89988DB0E0A0E087
:100ED0008093070190930801A0930901B0930A0140
:100EE000ADCE803269F48091E80082FFFCCF67E0EC
:100EF0008BE091E00E9485028BEF8093E8009ECE0C
:100F0000823209F09BCE8F8980931201EEEFFFE7CA
:100F1000859194918B3F9C4D51F1E0E0F8E08091F8
:100F20000B0190910C01A0910D01B0910E01803B3D
:100F30009440A105B105F1F48091120180FD1AC021
:100F4000EE3F8AE0F80789F587E797E7918380838A
:100F50008091600080935B0188E19BE00FB6F8947C
:100F6000A895809360000FBE9093600067CEEEEF6F
:100F7000FAE0D5CF808191818737974709F05ECE1F
:100F8000A8958091600088618093600080915B01EA
:100F900080936000EE3F2AE0F20789F08091FE0A1C
:100FA0009091FF0A9183808349CE80819181873718
:100FB000980751F29093FF0A8093FE0AC5CF1092D2
:100FC000FF0A1092FE0A3ACE0E949202DC011296AB
:100FD0000D911C910115110509F4E8CED801ED9190
:100FE000FC910190F081E02DBE016B5E7F4FC80146
:100FF0000995811123CEF80100851185EBCF1816D4
:1010000019060CF41BCED2CEF1E0FF12BECE62EF79
:1010100070E004CF10927C0110927B0188EE93E087
:10102000A0E0B0E080937D0190937E01A0937F01CA
:10103000B093800183E291E090937A0180937901EB
:101040008FEF9FEF90938601809385011092D701D7
:101050008091CF01811113C01092CA011092C90171
:101060008EE191E09093CC018093CB0186E390E0F8
:101070009093CE018093CD0181E08093CF010E94B7
:101080006804FC01A385B4851097A9F589EC91E06B
:1010900094878387858596852091CD013091CE01F7
:1010A000820F931F968785871092D9011092D801DD
:1010B00084E591E09093DB018093DA0186E390E090
:1010C0009093DD018093DC010E946804FC01A385FC
:1010D000B4851097D9F488ED91E09487838785854E
:1010E00096852091DC013091DD01820F931F968758
:1010F00085870895DC018D919C9111970097D1F718
:1011000089EC91E08D939C93C5CFDC018D919C91EE
:1011100011970097D1F788ED91E08D939C93DFCFE5
:10112000CF93DF93CDB7DEB72E970FB6F894DEBF1F
:101130000FBECDBF789484B5826084BD84B58160D4
:1011400084BD85B5826085BD85B5816085BD809192
:101150006E00816080936E0010928100809181000A
:101160008260809381008091810081608093810002
:1011700080918000816080938000809191008260E6
:101180008093910080919100816080939100809183
:1011900090008160809390008091C1008460809372
:1011A000C1008091C10082608093C1008091C10024
:1011B00081608093C1008091C30081608093C300EF
:1011C0008091C00082608093C0008091C2008160E5
:1011D0008093C20080917A00846080937A0080912D
:1011E0007A00826080937A0080917A008160809397
:1011F0007A0080917A00806880937A00109278015A
:1012000010925E0110925D018091D7008160809301
:10121000D70080EA8093D80089B5806189BD89B5FF
:10122000826089BD09B400FEFDCF0E943F0180911C
:10123000D8008F7C80618093D8008091E000807F0F
:101240008093E0008091E1008E7E8093E1008DE04C
:101250008093E200559A209A5D9828988FEF9FEF2F
:10126000909386018093850190E0292E90E0392E9D
:1012700089E791E00E945503892B09F450C189E761
:1012800091E00E941303E0916D01E11102C0853AE3
:1012900079F791E09E0F90936D01F0E0EB59FE4FCE
:1012A0008083983029F790916C01E5E6F1E080E0C9
:1012B0002191822721E0EC36F207D1F7981769F0E7
:1012C0006AE589E791E00E94ED0261E089E791E03B
:1012D0000E94ED0210926D01CBCF809166018330A8
:1012E00009F409C138F4813041F1823009F4BBC0FE
:1012F0001D82EEC0843009F407C18530C9F78091A2
:101300006701909168019827892798279093620137
:10131000809361018091690190916A0198278927E2
:1013200098279093600180935F0141E040936401AE
:101330000E94F70451E05D83CBC0809167019091DA
:1013400068019827892798274091690150916A017F
:10135000542745275427052E000C660B770B4D8329
:101360005E836F83788777FF07C07095609550958F
:1013700041955F4F6F4F7F4F092E000CAA0BBB0B9F
:1013800089879A87AB87BC87B7FF07C0B095A095C0
:10139000909581959F4FAF4FBF4F481759076A07E8
:1013A0007B0714F4AC01BD01CB01BA0162587F4F39
:1013B0008F4F9F4F2FE730E040E050E00E94960AA9
:1013C00029013A018D819E81AF81B88589839A83F5
:1013D000AB83BC83C984DA84EB84FC84812C912C9C
:1013E0005401839410E01D86481459046A047B0458
:1013F0000CF492C0C701B601A30192010E94960AA3
:101400002E8769817A818B819C81A30192010E9440
:10141000960A022F622F611B40E08E859D85891BF5
:101420000E94DA04AFEF8A1A9A0AAA0ABA0A298530
:101430003A854B855C85C20ED31EE41EF51E89815C
:101440009A81AB81BC812D813E814F815885820F6D
:10145000931FA41FB51F89839A83AB83BC83102F6E
:101460003E853D87C1CF409167014983413031F0CE
:10147000423021F04330A9F554E059839091D701CF
:1014800080916801882379F18981892B891739F046
:101490008093D70140E060E080E00E94DA04809110
:1014A0006401882379F08981882361F08091630148
:1014B000909168019923D9F09981892B80936301D8
:1014C0000E94F704A1E0AD83B981BB2309F410CFDA
:1014D0006AE589E791E00E94ED0261E09D8169275C
:1014E000F5CE1982CBCF898180958923CFCF998181
:1014F00090958923E3CF4091670160E080E00E94EE
:10150000DA0421E02D83E4CF40E060E084E60E942D
:10151000DA0431E03D83DCCF81E08D83D9CF211423
:10152000310409F4A5CE0E940000A2CE052E97FB3F
:101530001EF400940E94AD0A57FD07D00E94B50A20
:1015400007FC03D04EF40C94AD0A509540953095AD
:1015500021953F4F4F4F5F4F08959095809570951F
:1015600061957F4F8F4F9F4F0895A1E21A2EAA1BBE
:10157000BB1BFD010DC0AA1FBB1FEE1FFF1FA21743
:10158000B307E407F50720F0A21BB30BE40BF50B40
:10159000661F771F881F991F1A9469F760957095C9
:1015A000809590959B01AC01BD01CF010895EE0F90
:0E15B000FF1F0590F491E02D0994F894FFCFF1
:1015BE0000C18081000000FFFFFFFF00E10000007E
:1015CE00000000000000006F031D04E203C70300CB
:1015DE00000000ED02D7020E03030355031303317F
:0215EE000300F8
:00000001FF
