:100000000C94A9000C94D1000C94D1000C94D10054
:100010000C94D1000C94D1000C94D1000C94D1001C
:100020000C94D1000C94D1000C949B040C940A0500
:100030000C94D1000C94D1000C94D1000C94D100FC
:100040000C94D1000C94D1000C94D1000C94D100EC
:100050000C94D1000C94D1000C94D1000C94510458
:100060000C94D1000C94D1000C94D1000C94D100CC
:100070000C94D1000C94D1000C94D1000C94D100BC
:100080000C94D1000C94D1000C94D1000C94D100AC
:100090000C94D1000C94D1000C94D1000C94D1009C
:1000A0000C94D1000C94D1000C94D10005010902EC
:1000B000A1010901A100050919012908150025015F
:1000C000950875018102050109300931093815814A
:1000D000257F750895038106C0C0080B0002020247
:1000E00000000904000001020200000524001001C4
:1000F0000524010101042402060524060001070568
:10010000810310004009040100020A0000000705F5
:1001100002024000000705830240000004030904B6
:1001200012010002EF02014041233680000101026A
:10013000030141726475696E6F204C4C430041723B
:100140006475696E6F204C656F6E6172646F00003C
:100150003C0711241FBECFEFDAE0DEBFCDBF11E0B8
:10016000A0E0B1E0EEE2F2E102C005900D92AA3308
:10017000B107D9F721E0AAE3B1E001C01D92AE3B7F
:10018000B207E1F710E0C9EAD0E004C02197FE0110
:100190000E940F09C83AD107C9F70E94B9070C9409
:1001A00015090C940000FC0180916001882311F175
:1001B0003FB7F89482E08093E9002091F200822F0B
:1001C00090E01816190614F481E090E0882339F0C5
:1001D000289844E640935F014091F1004083222338
:1001E00039F02091F200211103C02BE62093E800A2
:1001F0003FBF08958FEF9FEF08953FB7F894809128
:100200005B0190915C01A0915D01B0915E0126B50A
:10021000A89B05C02F3F19F00196A11DB11D3FBF3E
:10022000BA2FA92F982F8827BC01CD01620F711D0D
:10023000811D911D42E0660F771F881F991F4A9507
:10024000D1F708958F929F92AF92BF92CF92DF9293
:10025000EF92FF924B015C010E94FD006B017C015B
:100260000E94FD006C197D098E099F09683E73404C
:1002700081059105A8F321E0821A9108A108B1082F
:1002800088EEC80E83E0D81EE11CF11C8114910495
:10029000A104B10429F7FF90EF90DF90CF90BF90B9
:1002A000AF909F908F9008954091480150914901DF
:1002B000209146013091470142175307B4F49091C1
:1002C000E8009570E1F39091E80092FD19C08093E9
:1002D000F100809148019091490101968F7399270F
:1002E000892B19F48EEF8093E8008091480190915A
:1002F00049010196909349018093480181E0089556
:1003000080E00895EF92FF920F931F93CF93DF93B6
:10031000F82E192FE62E042F81E0860F880F0E94F9
:10032000540183E00E945401CF2DD12FEC0EFD2EFD
:10033000F11CCE15DF05B9F007FF13C0FE01849153
:100340000E945401182F80E00E94540181232196BD
:100350008111EFCFDF91CF911F910F91FF90EF901F
:1003600008958881EDCF81E0F5CFDF92EF92FF9283
:100370000F931F93CF93DF93D82E8A01EB017B015C
:10038000E40EF51ECE15DF0559F0D7FE12C0FE01B2
:1003900084910E94540121968111F4CF0FEF1FEF39
:1003A000C801DF91CF911F910F91FF90EF90DF90E7
:1003B00008958881EECF2FB7F89487708093E90075
:1003C0009091E800892F807295FF04C09091F2000F
:1003D00080E4891B2FBF08957F928F929F92AF92E6
:1003E000BF92CF92DF92EF92FF920F931F93CF9322
:1003F000DF93C82E8B017A0180916001811110C0BA
:100400008FEF9FEFDF91CF911F910F91FF90EF90B2
:10041000DF90CF90BF90AF909F908F907F90089586
:1004200080914C0180FF05C08091E0008260809344
:10043000E000CE2DDF2DD12C8AEFB82E8C2D8770C9
:10044000982E8C2D8072882E8C2D8074782E9AE3B5
:10045000A92E209719F4DD2009F452C08C2D0E949A
:10046000DB0181110AC0BA94BB2051F261E070E057
:1004700080E090E00E942201ECCF8C171D0611F065
:100480000CF08C2F9FB7F8949092E9002091E8002F
:1004900025FD02C09FBFDDCF282F30E0C21BD30B4C
:1004A000882029F08150A0F01092F100FBCFF801D4
:1004B000C7FC0AC0815050F041914093F100FACF3F
:1004C00044914093F10031968150D0F7020F131FF1
:1004D000DD2021F0A092E800D12CDCCF8091E80053
:1004E00085FD07C0A092E800DD24D394209791F207
:1004F000F3CF209779F6772069F2A092E800CACF6F
:100500005D9884E680934B01C7017CCF615030F049
:100510002091F100FC0120830196F8CF289884E611
:1005200080935F01089580913E0181110DC082E0AA
:1005300080933A0184E080933B0110923D01109238
:100540003C0181E080933E018AE391E008950F939E
:100550001F93CF93DF931F92CDB7DEB782E08983DD
:1005600042E450E06AED70E080E80E94B5010E942C
:100570009302DC0112960D911C910115110589F071
:10058000D801ED91FC910280F381E02DBE016F5FF7
:100590007F4FC801099597FD04C0F80100851185BA
:1005A000ECCF89810F90DF91CF911F910F9108952A
:1005B000CF93DF93EC0180910B01882331F083E02E
:1005C0000E94EC011816190634F081E090E09B833C
:1005D0008A8380E090E0DF91CF910895CF93DF93FD
:1005E0001F92CDB7DEB76983DC01ED91FC910280EB
:1005F000F381E02D41E050E0BE016F5F7F4F099530
:100600000F90DF91CF91089583E08093E90080916E
:10061000F200882319F08AE38093E800089583E0CC
:100620000E94DB0190E00895CF93DF931F92CDB736
:10063000DEB7FC018485958597FD08C02FEF3FEF5D
:10064000358724870F90DF91CF910895CE010196D1
:100650000E94D300019719F4898190E0F3CF8FEFC6
:100660009FEFF0CF0F931F93CF93DF931F92CDB7E0
:10067000DEB78C01FC018485958597FF0BC0CE0108
:1006800001960E94D300019771F4898190E0F801EE
:1006900095878487F801848595850F90DF91CF91A8
:1006A0001F910F9108958FEF9FEFF1CFFC0184858B
:1006B000958597FD0BC09FB7F89482E08093E90081
:1006C0008091F2009FBF90E0019608959FB7F89443
:1006D00082E08093E9008091F2009FBF90E008954E
:1006E000EF920F931F93CF93DF9300D000D0CDB73D
:1006F000DEB749832A830B83EC8204E010E06111AA
:1007000002C003E010E0A801BE016F5F7F4F80646C
:100710000E94EC0121E00817190709F020E0822F60
:100720000F900F900F900F90DF91CF911F910F912D
:10073000EF900895DC01FB0112962C9112978481B1
:10074000958128171906C1F48081813271F4818165
:100750008B3029F482811B968C9381E008958A3036
:1007600059F483811C968C93F8CF813A29F49181B6
:10077000915081E0933008F080E00895CF93DF93AB
:10078000CDB7DEB729970FB6F894DEBF0FBECDBF49
:10079000FC014281FB01248135814217130659F582
:1007A0002081213841F523812132D1F489E0E3E130
:1007B000F1E0DE01119601900D928A95E1F749E092
:1007C00050E0BE016F5F7F4F80E00E94B501299627
:1007D0000FB6F894DEBF0FBECDBFDF91CF91089565
:1007E000223249F421E0FC0123874EE250E06CEA1A
:1007F00070E080E8EACF90E080E0E9CFCF93DF932C
:10080000CDB7DEB769970FB6F894DEBF0FBECDBF88
:10081000FC01DB019C919F5F9C939E012D5F3F4FEC
:1008200081E1D9011D928A95E9F729E0298384E0C5
:100830008A8391E09D8383E08E839F8332E03887B3
:100840002A8721E22B879C879D879F8722E2288B1E
:100850002EE2298B27E02B8B25E02C8B8E8B20E43E
:1008600030E0388F2F8B998F82818B8383818068D2
:100870008D8B49E150E0BE016F5F7F4F80E00E94A9
:10088000B50169960FB6F894DEBF0FBECDBFDF91FC
:10089000CF910895FC0182818F5BFB01808381E011
:1008A00008951F920F920FB60F9211242F933F932A
:1008B0008F939F93AF93BF9380915701909158016D
:1008C000A0915901B0915A013091560123E0230FB4
:1008D0002D3758F50196A11DB11D20935601809327
:1008E000570190935801A0935901B0935A018091F8
:1008F0005B0190915C01A0915D01B0915E01019658
:10090000A11DB11D80935B0190935C01A0935D01DB
:10091000B0935E01BF91AF919F918F913F912F91C5
:100920000F900FBE0F901F90189526E8230F029688
:10093000A11DB11DD2CF1F920F920FB60F9211249D
:100940008F939F938091E1009091E100937F90932A
:10095000E10083FF0FC01092E90091E09093EB005B
:100960001092EC0092E39093ED001092600198E0F9
:100970009093F00082FF22C093E09093E900909161
:10098000F200992319F09AE39093E80090914B01BB
:10099000992341F090914B01915090934B0191110B
:1009A00001C05D9A90915F01992341F090915F01A0
:1009B000915090935F01911101C0289A84FF18C053
:1009C0008091E2008E7E81608093E2008091E10060
:1009D0008F7E8093E10080914C018E7E80618093B8
:1009E0004C019F918F910F900FBE0F901F90189503
:1009F00080FFF7CF8091E2008E7E80618093E200DD
:100A00008091E1008E7E8093E10080914C018E7E8A
:100A10008160E5CF1F920F920FB60F921124CF92F3
:100A2000DF92EF92FF920F931F932F933F934F9379
:100A30005F936F937F938F939F93AF93BF93EF9346
:100A4000FF93CF93DF93CDB7DEB76C97DEBFCDBFFB
:100A50001092E9008091E80083FF25C068E0CE0194
:100A600045960E94860282EF8093E8008D8987FF79
:100A700039C09091E80090FFFCCF982F907609F054
:100A800034C19E894F89588D2F89F88C911131C0BE
:100A9000803861F580914D018093F1001092F10052
:100AA0008EEF8093E8006C960FB6F894DEBF0FBE11
:100AB000CDBFDF91CF91FF91EF91BF91AF919F910A
:100AC0008F917F916F915F914F913F912F911F91E6
:100AD0000F91FF90EF90DF90CF900F900FBE0F908F
:100AE0001F9018959EEF9093E800C7CF1092F100E9
:100AF000D5CF913059F48111D3CF4130510581F6D2
:100B000080914D018D7F80934D01CACF933049F480
:100B10008111C6CF4130510519F680914D01826097
:100B2000F2CF953041F48091E80080FFFCCF20683F
:100B30002093E300B5CF963009F0A9C00B8D1C8D32
:100B400022E01092E9001092490110924801F2123D
:100B50002EC010924701109246010E94A7021F82E8
:100B600099E09983FA8291E09E8390EA98879AEFC0
:100B700099872091480130914901275F3F4F3C837D
:100B80002B838D831092E900109249011092480145
:100B9000109347010093460149E050E0BE016F5FAA
:100BA0007F4F80E00E94B5010E94A70279CF109389
:100BB0004701009346010E949302DC0112960D91B9
:100BC0001C910115110509F451C1D801ED91FC9159
:100BD0000480F581E02DBE016B5E7F4FC801099551
:100BE000009709F03EC1F80100851185EACFF3E0D6
:100BF000FF120EC08F89882309F440C0823061F44F
:100C000040E860E18EE391E00E948201811148CFCB
:100C100081E28093EB0047CF813029F440E86BE01C
:100C200082E391E0F1CF833099F70E949302DC01D7
:100C30001296ED90FC908E010F5F1F4F6801E1143A
:100C4000F10479F0D701ED91FC910680F781E02D58
:100C5000B801C7010995080F111DF701E084F1845F
:100C6000EECFD8011C92F60101900020E9F73197F0
:100C7000BF016C197D0940E0C601C6CF6CE171E08F
:100C8000FB01449150E080E80E94B50109CF973004
:100C900009F4BECF983021F481E08093F10000CFB9
:100CA000993009F0FDCE837009F0B2CFEDE0F1E0AC
:100CB00081E031E096E32191222371F08093E900F5
:100CC0003093EB00DF0111972C912093EC0090936F
:100CD000ED008F5F873079F78EE78093EA001092FE
:100CE000EA008F8980936001DBCE8B8D9C8D109202
:100CF000E9001092490110924801909347018093B6
:100D00004601898D811192C08E899D89913A49F45D
:100D1000813209F07DCF47E050E064E071E080E08F
:100D2000B3CF913209F074CF833269F48F89988DF3
:100D3000B0E0A0E08093000190930101A093020134
:100D4000B0930301ADCE803269F48091E80082FF58
:100D5000FCCF67E084E091E00E9486028BEF8093F5
:100D6000E8009ECE823209F09BCE8F8980930B01E2
:100D7000EEEFFFE7859194918B3F9C4D51F1E0E0C0
:100D8000F8E08091040190910501A0910601B091D5
:100D90000701803B9440A105B105F1F480910B015E
:100DA00080FD1AC0EE3F8AE0F80789F587E797E7EC
:100DB000918380838091600080934A0188E19BE069
:100DC0000FB6F894A895809360000FBE90936000D2
:100DD00067CEEEEFFAE0D5CF8081918187379747D4
:100DE00009F05ECEA89580916000886180936000D4
:100DF00080914A0180936000EE3F2AE0F20789F07B
:100E00008091FE0A9091FF0A9183808349CE808170
:100E100091818737980751F29093FF0A8093FE0AD9
:100E2000C5CF1092FF0A1092FE0A3ACE0E9493029A
:100E3000DC0112960D911C910115110509F4E8CE03
:100E4000D801ED91FC910190F081E02DBE016B5E27
:100E50007F4FC8010995811123CEF80100851185C6
:100E6000EBCF181619060CF41BCED2CEF1E0FF1210
:100E7000BECE60E271E004CFCF93DF9310926401A5
:100E80001092630188EE93E0A0E0B0E080936501EA
:100E900090936601A0936701B093680180E291E0AE
:100EA00090936201809361018FEF9FEF90936E01A9
:100EB00080936D0181E08093B5018093B6012BEBA7
:100EC00031E03093B8012093B7011092BA0110922B
:100ED000B90122E331E03093B2012093B101809354
:100EE000BC018093BD0181EC8093BB010E94930201
:100EF000FC0181819091B501482F490F5527551F5D
:100F0000483051059CF5A281B381109709F521EB7A
:100F100031E03383228320812093B3018093B40195
:100F20008091B601820F80832091B701A22FB091EA
:100F3000B8018A2F821B8917C8F481813D91C82F7F
:100F4000D0E0C45FDE4F38838F5F8183F2CFD90159
:100F500018962D913C91199721153105C1F721EB78
:100F600031E019963C932E931897D5CFDF91CF910E
:100F70000895789484B5826084BD84B5816084BD11
:100F800085B5826085BD85B5816085BD80916E0027
:100F9000816080936E001092810080918100826058
:100FA0008093810080918100816080938100809195
:100FB00080008160809380008091910082608093A6
:100FC00091008091910081608093910080919000C8
:100FD0008160809390008091C10084608093C10003
:100FE0008091C10082608093C1008091C1008160C6
:100FF0008093C1008091C30081608093C300809181
:10100000C00082608093C0008091C20081608093A4
:10101000C20080917A00846080937A0080917A0087
:10102000826080937A0080917A00816080937A0058
:1010300080917A00806880937A001092600110920B
:101040004D0110924C018091D70081608093D700B0
:1010500080EA8093D80089B5806189BD89B58260B6
:1010600089BD09B400FEFDCF61E070E080E090E052
:101070000E9422018091D8008F7C80618093D800EB
:101080008091E000807F8093E0008091E1008E7E7F
:101090008093E1008DE08093E200559A209A8FEFD3
:1010A0009FEF90936E0180936D0168EB7BE080E091
:1010B00090E00E942201CAE0E12C00E024E140E03F
:1010C0006091BC018091B4010E9470036EE170E0F8
:1010D00080E090E00E942201C15071F7C0E0D0E0B2
:1010E00081E691E00E945603892B09F492C081E6C3
:1010F00091E00E941403E0915501E11102C08A3A87
:1011000079F791E09E0F90935501F0E0E15BFE4F7F
:101110008083963029F780915001823009F45BC0BA
:1011200030F4813009F441C010925501D9CF833099
:1011300009F46CC08F37C1F785E0F82E11E0E12C7F
:1011400000E024E140E06091BC018091B4010E9484
:101150007003182364E170E080E090E00E942201B7
:10116000FA94F110ECCF20E041E06091BC01809155
:10117000B4010E947003F82E64E170E080E090E01A
:101180000E94220120E040E06091BC018091B40106
:101190000E9470031F2119F06CEA811101C061EEF9
:1011A00081E691E00E94EE02BFCF009153011091C1
:1011B000540110270127209151013091520132270B
:1011C0002327E12C40914E016091BC018091B40134
:1011D0000E947003A9CF80915101813029F08230A3
:1011E00019F0833071F484E090914E012091520106
:1011F000222349F0892B80934E01E12C00E020E06E
:10120000E1CF80E0F1CF80958923F5CFE0905101C7
:10121000F5CF209709F464CF0E94000061CFEE0F54
:0E122000FF1F0590F491E02D0994F894FFCF84
:10122E00FFFFFFFF00E100000000000000C1808111
:10123E00000000092101010001222E000000000023
:10124E00EE02D8020F030403560314033203000008
:0A125E0000009A03FE03BE034A04D9
:00000001FF
