:100000000C94AD000C94D5000C94D5000C94D50044
:100010000C94D5000C94D5000C94D5000C94D5000C
:100020000C94D5000C94D5000C9430050C949F05CD
:100030000C94D5000C94D5000C94D5000C94D500EC
:100040000C94D5000C94D5000C94D5000C94D500DC
:100050000C94D5000C94D5000C94D5000C94E604B7
:100060000C94D5000C94D5000C94D5000C94D500BC
:100070000C94D5000C94D5000C94D5000C94D500AC
:100080000C94D5000C94D5000C94D5000C94D5009C
:100090000C94D5000C94D5000C94D5000C94D5008C
:1000A0000C94D5000C94D5000C94D500080B0002DC
:1000B0000202000009040000010202000005240001
:1000C0001001052401010104240206052406000193
:1000D0000705810310004009040100020A00000026
:1000E00007050202400000070583024000000403E8
:1000F000090412010002EF02014041233680000191
:100100000102030141726475696E6F204C4C43001B
:1001100041726475696E6F204C656F6E6172646FB9
:100120000005010902A1010901A1008501050919C4
:1001300001290315002501950375018102950175BB
:1001400005810305010930093109381581257F75BD
:100150000895038106C0C000D10711241FBECFEF50
:10016000DAE0DEBFCDBF11E0A0E0B1E0E4E2F3E110
:1001700002C005900D92A233B107D9F721E0A2E3A6
:10018000B1E001C01D92A13DB207E1F710E0CDEA58
:10019000D0E004C02197FE010E948A09CC3AD10721
:1001A000C9F70E945B080C9490090C940000CF934F
:1001B000DF93FC0181819091AD01482F490F5527B4
:1001C000551F483051059CF5A281B381109709F560
:1001D00029EA31E03383228320812093AB0180938D
:1001E000AC018091AE01820F80832091AF01A22FDC
:1001F000B091B0018A2F821B8917E8F481813D916B
:10020000C82FD0E0C45FDE4F38838F5F8183F2CF89
:10021000D90118962D913C91199721153105C1F7F7
:1002200029EA31E019963C932E931897D5CF80E0B8
:10023000DF91CF91089581E0FBCFFC0180915801BF
:10024000882311F13FB7F89482E08093E900209170
:10025000F200822F90E01816190614F481E090E065
:10026000882339F0289844E6409357014091F100E3
:100270004083222339F02091F200211103C02BE6A4
:100280002093E8003FBF08958FEF9FEF08953FB799
:10029000F8948091530190915401A0915501B0912F
:1002A000560126B5A89B05C02F3F19F00196A11D48
:1002B000B11D3FBFBA2FA92F982F8827BC01CD01B0
:1002C000620F711D811D911D42E0660F771F881F0F
:1002D000991F4A95D1F708958F929F92AF92BF923E
:1002E000CF92DF92EF92FF924B015C010E94470197
:1002F0006B017C010E9447016C197D098E099F09E1
:10030000683E734081059105A8F321E0821A9108A7
:10031000A108B10888EEC80E83E0D81EE11CF11CCC
:1003200081149104A104B10429F7FF90EF90DF90AC
:10033000CF90BF90AF909F908F90089540914001D3
:100340005091410120913E0130913F0142175307E6
:10035000B4F49091E8009570E1F39091E80092FD7B
:1003600019C08093F1008091400190914101019664
:100370008F739927892B19F48EEF8093E800809171
:100380004001909141010196909341018093400179
:1003900081E0089580E00895EF92FF920F931F93FC
:1003A000CF93DF93F82E192FE62E042F81E0860FCE
:1003B000880F0E949E0183E00E949E01CF2DD12FC5
:1003C000EC0EFD2EF11CCE15DF05B9F007FF13C0B2
:1003D000FE0184910E949E01182F80E00E949E01E0
:1003E000812321968111EFCFDF91CF911F910F9142
:1003F000FF90EF9008958881EDCF81E0F5CFDF92F7
:10040000EF92FF920F931F93CF93DF93D82E8A0121
:10041000EB017B01E40EF51ECE15DF0559F0D7FE8A
:1004200012C0FE0184910E949E0121968111F4CF99
:100430000FEF1FEFC801DF91CF911F910F91FF9038
:10044000EF90DF9008958881EECF2FB7F8948770F2
:100450008093E9009091E800892F807295FF04C095
:100460009091F20080E4891B2FBF08957F928F92B4
:100470009F92AF92BF92CF92DF92EF92FF920F9333
:100480001F93CF93DF93C82E8B017A01809158017F
:10049000811110C08FEF9FEFDF91CF911F910F91CE
:1004A000FF90EF90DF90CF90BF90AF909F908F9094
:1004B0007F9008958091440180FF05C08091E00005
:1004C00082608093E000CE2DDF2DD12C8AEFB82EF4
:1004D0008C2D8770982E8C2D8072882E8C2D807498
:1004E000782E9AE3A92E209719F4DD2009F452C042
:1004F0008C2D0E94250281110AC0BA94BB2051F2B2
:1005000061E070E080E090E00E946C01ECCF8C171D
:100510001D0611F00CF08C2F9FB7F8949092E90013
:100520002091E80025FD02C09FBFDDCF282F30E0DD
:10053000C21BD30B882029F08150A0F01092F1004B
:10054000FBCFF801C7FC0AC0815050F041914093A5
:10055000F100FACF44914093F10031968150D0F7E9
:10056000020F131FDD2021F0A092E800D12CDCCF78
:100570008091E80085FD07C0A092E800DD24D394B7
:10058000209791F2F3CF209779F6772069F2A09225
:10059000E800CACF5D9884E680934301C7017CCF11
:1005A000615030F02091F100FC0120830196F8CFDA
:1005B000289884E68093570108958091360181112F
:1005C0000DC082E08093320184E080933301109269
:1005D00035011092340181E08093360182E391E08D
:1005E00008950F931F93CF93DF931F92CDB7DEB77C
:1005F00082E0898342E450E06CEA70E080E80E9487
:10060000FF010E94DD02DC0112960D911C91011583
:10061000110589F0D801ED91FC910280F381E02D64
:10062000BE016F5F7F4FC801099597FD04C0F801B7
:1006300000851185ECCF89810F90DF91CF911F91BB
:100640000F910895CF93DF93EC0180910B018823E4
:1006500031F083E00E9436021816190634F081E06A
:1006600090E09B838A8380E090E0DF91CF910895B2
:10067000CF93DF931F92CDB7DEB76983DC01ED9195
:10068000FC910280F381E02D41E050E0BE016F5FFC
:100690007F4F09950F90DF91CF91089583E080936C
:1006A000E9008091F200882319F08AE38093E80042
:1006B000089583E00E94250290E00895CF93DF9390
:1006C0001F92CDB7DEB7FC018485958597FD08C0E4
:1006D0002FEF3FEF358724870F90DF91CF9108955B
:1006E000CE0101960E941D01019719F4898190E0C5
:1006F000F3CF8FEF9FEFF0CF0F931F93CF93DF9345
:100700001F92CDB7DEB78C01FC018485958597FFDC
:100710000BC0CE0101960E941D01019771F48981E1
:1007200090E0F80195878487F801848595850F907E
:10073000DF91CF911F910F9108958FEF9FEFF1CF30
:10074000FC018485958597FD0BC09FB7F89482E0E6
:100750008093E9008091F2009FBF90E00196089598
:100760009FB7F89482E08093E9008091F2009FBFE8
:1007700090E00895DC01FB0112962C911297848180
:1007800095812817190641F491818081813A31F4CD
:100790009D7F81E0913009F080E008958132E1F79A
:1007A0009B3029F482811F968C9381E008959A30C2
:1007B00099F7828150968C93F8CFDC01FB0188E495
:1007C000808389E4818384E482831D969C911D97B4
:1007D0009F709F5B93831D968D919C9124E09695CD
:1007E00087952A95E1F78F708F5B848385E0089564
:1007F000EF92FF920F931F93CF93DF93FB01208122
:10080000213871F52381223259F5DC0112964C9181
:10081000248135814217130619F5EC010B851C85DF
:10082000F12CE12C0115110589F0F8014481558165
:100830006281738180E80E94FF018F3F980749F031
:10084000E80EF91ED8010D911C91ECCF81E08F8745
:10085000C701DF91CF911F910F91FF90EF90089505
:1008600090E080E0F6CFCF93DF93CDB7DEB7699706
:100870000FB6F894DEBF0FBECDBFFC01DB018C913B
:100880008F5F8C939E012D5F3F4F8DE0D9011D92AC
:100890008A95E9F729E0298384E08A8391E09D83A2
:1008A00083E08E832A8721E22B879C879D879F8701
:1008B00022E2288B27E02B8B25E02C8B8E8B20E4EB
:1008C00030E0388F2F8B998F82818B839585868539
:1008D000998B8A8B838180688D8B49E150E0BE01C2
:1008E0006F5F7F4F80E00E94FF0169960FB6F8941A
:1008F000DEBF0FBECDBFDF91CF9108950F931F9341
:10090000CF93DF9300D000D01F92CDB7DEB7909188
:10091000460199838A836B834C838091BA0181114C
:100920002AC011E01093AD011093AE0183EB91E06A
:100930009093B0018093AF011092B2011092B10177
:1009400089E291E09093AA018093A9011092B501E8
:100950001092B4011092B7011092B6011093B80131
:100960001093B90181EC8093B3010E94DD020E94D3
:10097000D7001093BA0181E08D8341E050E0BE01C1
:100980006B5F7F4F8091AC010E9436028C0197FD16
:100990000EC08091AC0144E050E0BE016F5F7F4F1C
:1009A00080640E943602080F191F97FD8C0181E0B8
:1009B0000530110509F080E00F900F900F900F9017
:1009C0000F90DF91CF911F910F9108951F920F9279
:1009D0000FB60F9211242F933F938F939F93AF9352
:1009E000BF9380914F0190915001A0915101B0911E
:1009F000520130914E0123E0230F2D3758F5019617
:100A0000A11DB11D20934E0180934F019093500181
:100A1000A0935101B09352018091530190915401E0
:100A2000A0915501B09156010196A11DB11D809371
:100A3000530190935401A0935501B0935601BF9177
:100A4000AF919F918F913F912F910F900FBE0F907B
:100A50001F90189526E8230F0296A11DB11DD2CF35
:100A60001F920F920FB60F9211248F939F93809134
:100A7000E1009091E100937F9093E10083FF0FC02C
:100A80001092E90091E09093EB001092EC0092E359
:100A90009093ED001092580198E09093F00082FF3F
:100AA00022C093E09093E9009091F200992319F00D
:100AB0009AE39093E80090914301992341F090913B
:100AC0004301915090934301911101C05D9A90911F
:100AD0005701992341F090915701915090935701FC
:100AE000911101C0289A84FF18C08091E2008E7E87
:100AF00081608093E2008091E1008F7E8093E1002D
:100B0000809144018E7E8061809344019F918F91FA
:100B10000F900FBE0F901F90189580FFF7CF809118
:100B2000E2008E7E80618093E2008091E1008E7E03
:100B30008093E100809144018E7E8160E5CF1F9219
:100B40000F920FB60F921124CF92DF92EF92FF9285
:100B50000F931F932F933F934F935F936F937F93C5
:100B60008F939F93AF93BF93EF93FF93CF93DF93B5
:100B7000CDB7DEB76C97DEBFCDBF1092E900809194
:100B8000E80083FF25C068E0CE0145960E94D002B0
:100B900082EF8093E8008D8987FF39C09091E8004B
:100BA00090FFFCCF982F907609F034C19E894F8931
:100BB000588D2F89F88C911131C0803861F5809162
:100BC00045018093F1001092F1008EEF8093E800D0
:100BD0006C960FB6F894DEBF0FBECDBFDF91CF91FC
:100BE000FF91EF91BF91AF919F918F917F916F9105
:100BF0005F914F913F912F911F910F91FF90EF9037
:100C0000DF90CF900F900FBE0F901F9018959EEF22
:100C10009093E800C7CF1092F100D5CF913059F4EE
:100C20008111D3CF4130510581F6809145018D7FEF
:100C300080934501CACF933049F48111C6CF41302A
:100C4000510519F6809145018260F2CF953041F44B
:100C50008091E80080FFFCCF20682093E300B5CFAF
:100C6000963009F0A9C00B8D1C8D22E01092E9008E
:100C70001092410110924001F2122EC010923F01D9
:100C800010923E010E94F1021F8299E09983FA823C
:100C900091E09E8390EA98879AEF9987209140018E
:100CA00030914101275F3F4F3C832B838D8310920E
:100CB000E900109241011092400110933F0100930E
:100CC0003E0149E050E0BE016F5F7F4F80E00E942F
:100CD000FF010E94F10279CF10933F0100933E0182
:100CE0000E94DD02DC0112960D911C910115110587
:100CF00009F451C1D801ED91FC910480F581E02DFA
:100D0000BE016B5E7F4FC8010995009709F03EC197
:100D1000F80100851185EACFF3E0FF120EC08F893C
:100D2000882309F440C0823061F440E860E180E14A
:100D300091E00E94CC01811148CF81E28093EB00C9
:100D400047CF813029F440E86BE084E091E0F1CFB7
:100D5000833099F70E94DD02DC011296ED90FC9041
:100D60008E010F5F1F4F6801E114F10479F0D70184
:100D7000ED91FC910680F781E02DB801C70109953E
:100D8000080F111DF701E084F184EECFD8011C9209
:100D9000F60101900020E9F73197BF016C197D0938
:100DA00040E0C601C6CF6EEE70E0FB01449150E01A
:100DB00080E80E94FF0109CF973009F4BECF983038
:100DC00021F481E08093F10000CF993009F0FDCE4D
:100DD000837009F0B2CFEDE0F1E081E031E096E31D
:100DE0002191222371F08093E9003093EB00DF0121
:100DF00011972C912093EC009093ED008F5F87303A
:100E000079F78EE78093EA001092EA008F89809349
:100E10005801DBCE8B8D9C8D1092E9001092410120
:100E20001092400190933F0180933E01898D811182
:100E300092C08E899D89913A49F4813209F07DCF23
:100E400047E050E064E071E080E0B3CF913209F018
:100E500074CF833269F48F89988DB0E0A0E08093DD
:100E6000000190930101A0930201B0930301ADCE64
:100E7000803269F48091E80082FFFCCF67E084E073
:100E800091E00E94D0028BEF8093E8009ECE8232E8
:100E900009F09BCE8F8980930B01EEEFFFE78591E0
:100EA00094918B3F9C4D51F1E0E0F8E0809104017A
:100EB00090910501A0910601B0910701803B9440FB
:100EC000A105B105F1F480910B0180FD1AC0EE3F40
:100ED0008AE0F80789F587E797E791838083809117
:100EE00060008093420188E19BE00FB6F894A895DA
:100EF000809360000FBE9093600067CEEEEFFAE043
:100F0000D5CF808191818737974709F05ECEA8952C
:100F1000809160008861809360008091420180939D
:100F20006000EE3F2AE0F20789F08091FE0A90917E
:100F3000FF0A9183808349CE80819181873798070A
:100F400051F29093FF0A8093FE0AC5CF1092FF0AD8
:100F50001092FE0A3ACE0E94DD02DC0112960D913B
:100F60001C910115110509F4E8CED801ED91FC9111
:100F70000190F081E02DBE016B5E7F4FC8010995A5
:100F8000811123CEF80100851185EBCF18161906C3
:100F90000CF41BCED2CEF1E0FF12BECE62EF70E0B9
:100FA00004CFCF9310925C0110925B0188EE93E026
:100FB000A0E0B0E080935D0190935E01A0935F019B
:100FC000B093600187E191E090935A0180935901B9
:100FD0008FEF9FEF90936601809365011092D0018F
:100FE0008091C801811113C01092C3011092C201F7
:100FF00081E291E09093C5018093C40186E390E083
:101000009093C7018093C60181E08093C8018091CD
:10101000BA0181112AC0C1E0C093AD01C093AE01F5
:1010200083EB91E09093B0018093AF011092B201F5
:101030001092B10189E291E09093AA018093A901F5
:101040001092B5011092B4011092B7011092B6013E
:10105000C093B801C093B90181EC8093B3010E94A1
:10106000DD020E94D700C093BA01E091B401F09173
:10107000B5013097B9F482EC91E09093B50180937B
:10108000B4018091B6019091B7012091C6013091D1
:10109000C701820F931F9093B7018093B601CF9140
:1010A0000895FC01808191810097D9F782EC91E04D
:1010B00091838083E6CF789484B5826084BD84B5C3
:1010C000816084BD85B5826085BD85B5816085BD43
:1010D00080916E00816080936E00109281008091FB
:1010E0008100826080938100809181008160809383
:1010F00081008091800081608093800080919100C8
:101100008260809391008091910081608093910032
:10111000809190008160809390008091C1008460F4
:101120008093C1008091C10082608093C100809152
:10113000C10081608093C1008091C3008160809371
:10114000C3008091C00082608093C0008091C20083
:1011500081608093C20080917A00846080937A00DD
:1011600080917A00826080937A0080917A00816019
:1011700080937A0080917A00806880937A00109240
:10118000580110924501109244018091D70081606E
:101190008093D70080EA8093D80089B5806189BDAB
:1011A00089B5826089BD09B400FEFDCF61E070E0C1
:1011B00080E090E00E946C018091D8008F7C80617B
:1011C0008093D8008091E000807F8093E000809140
:1011D000E1008E7E8093E1008DE08093E200559ADD
:1011E000209A8FEF9FEF9093660180936501C0E096
:1011F000D0E0FF24F39489E591E00E94A003181643
:1012000019060CF081C089E591E00E945E03E0912F
:101210004D01E11102C08A3A71F791E09E0F90935F
:101220004D01F0E0E95BFE4F8083963021F780911D
:101230004801823009F44BC028F48130C1F110928A
:101240004D01D9CF833009F45CC005E011E08F3740
:10125000B1F740E060E084E10E947E04182364E17D
:1012600070E080E090E00E946C01015091F7F092F4
:10127000460140E060E080E00E947E04082F64E1C7
:1012800070E080E090E00E946C011092460140E026
:1012900060E080E00E947E04102319F06CEA811166
:1012A00001C061EE89E591E00E943803C8CF6091EA
:1012B0004B0170914C0176276727809149019091ED
:1012C0004A019827892740E00E947E04B8CF809188
:1012D0004901813031F0823021F0833009F0AFCF05
:1012E00084E09091460120914A01222339F0892B14
:1012F0008093460140E060E080E0E6CF809589235E
:10130000F7CF40914901F7CF209709F474CF0E949D
:10131000000071CFEE0FFF1F0590F491E02D0994AE
:04132000F894FFCF6F
:10132400FFFFFFFF00E100000000000000C180811A
:10133400000000000000003803220359034E03A0FC
:10134400035E037C0300000000BA033304F803DDEA
:02135400030094
:00000001FF
